:100000001DC076C136C035C034C028C132C031C031
:1000100030C02FC02EC02DC02CC02BC02AC0000065
:100020000000360000000000380002020202020256
:1000300001020408102001020000040011241FBE68
:10004000CFE5D2E0DEBFCDBF10E0A0E6B0E0EEE944
:10005000FDE002C005900D92A436B107D9F720E06B
:10006000A4E6B0E001C01D92AF37B207E1F74FD16F
:1000700094C6C6CF17B887B187B9369A3699FECFDE
:1000800084B195B10895813021F48AB58F778ABD06
:100090000895823019F48AB58F7DF9CF833021F429
:1000A00080B78F7D80BF0895843019F48CB58F7D23
:1000B0008CBD08951F93CF93DF93162F87FF09C040
:1000C0008F7771F1813071F1823071F1833071F18C
:1000D0008FEF282F30E0F901EA5CFF4F8491F9019E
:1000E000E05DFF4FD491F901E65DFF4FC491CC2351
:1000F00099F08111C8DFEC2FF0E0EE0FFF1FEC5DEF
:10010000FF4FA591B4918FB7111112C0F894EC91E3
:10011000D095DE23DC938FBFDF91CF911F9108959F
:1001200085E0D7CF82E0D5CF84E0D3CF83E0D1CFB5
:10013000F894EC91DE2BEECF3FB7F89480917B00E2
:1001400090917C00A0917D00B0917E0022B708B60E
:1001500001FE05C02F3F19F00196A11DB11D3FBF43
:10016000BA2FA92F982F8827BC01CD01620F711DCE
:10017000811D911D43E0660F771F881F991F4A95C7
:10018000D1F70895CF92DF92EF92FF92CF93DF9352
:100190006B017C01D1DFEB01CFDF6C1B7D0B683E77
:1001A0007340A0F0C114D104E104F10439F4DF91EB
:1001B000CF91FF90EF90DF90CF90089581E0C81A23
:1001C000D108E108F108C851DC4FE6CFC114D104D1
:1001D000E104F10409F7EBCF2FB7F89460917700B1
:1001E000709178008091790090917A002FBF0895E6
:1001F000EF92FF920F931F93CF93DF93E82EF62E8B
:10020000C7E0D0E0042F10E0B8010C2E02C07595B5
:1002100067950A94E2F761708E2D4CDF61E08F2DB7
:1002200049DF60E08F2D46DF219770F7DF91CF9196
:100230001F910F91FF90EF900895CF93C82F60E02A
:1002400081E038DF41E160E083E0D2DF4C2F60E005
:1002500083E0CEDF61E081E0CF912CCF1F920F923F
:100260000FB60F9211242F933F938F939F93AF93C9
:10027000BF938091770090917800A0917900B09120
:100280007A003091760026E0230F2D3768F129E8B7
:10029000230F0396A11DB11D209376008093770054
:1002A00090937800A0937900B0937A0080917B00BE
:1002B00090917C00A0917D00B0917E000196A11DDF
:1002C000B11D80937B0090937C00A0937D00B09340
:1002D0007E00BF91AF919F918F913F912F910F9091
:1002E0000FBE0F901F9018950296A11DB11DD4CF7F
:1002F0001F920F920FB60F9211248F9381E080937B
:1003000072008F910F900FBE0F901F901895CF9392
:10031000DF93CDB7DEB728970FB6F894DEBF0FBED8
:10032000CDBF81B781BF8AB582608ABD8AB5816041
:100330008ABD83B7887F836083BF789489B78260E2
:1003400089BF80B7807F80BF80B7806880BF80B75B
:10035000806480BF8CB580648CBD8FEF8DBD80B70D
:10036000876080BF86B18877866886B9379A85B7F7
:10037000826085BF8BB780648BBF8FB780688FBF6B
:1003800087B38B6187BBBA98379A74DE90937500F8
:1003900080937400BC01990F880B990BDFD36B011C
:1003A0007C01C0926E00D0926F00E0927000F092DB
:1003B0007100AC019B0162D42DEE3DE04EE35BE3A6
:1003C0005DD44B015C0128E834EF4BE35FE3C701E8
:1003D000B60154D49B01AC01C501B40128D322E974
:1003E0003CED44E352E422D36B017C0120E030E099
:1003F000A90140D420E030E040E05FE387FD96C0F3
:10040000C701B60114D377D36F3F710511F00CF01B
:1004100091C07093690060936800C701B60170D302
:10042000862F90E00ADF412C512C90E8692E9FE343
:10043000792E22242A94312C1DDE209174003091D3
:1004400075003A832983821B930B181619060CF04A
:1004500078C010DE49815A81841B950B04970CF0FB
:1004600078C080917300882309F425C203DEE091EF
:100470007400F0917500FA83E9838E1B9F0B1816A8
:1004800019060CF0DDC0F6DD29813A81821B930B41
:1004900004970CF4DDC085B78D7F85BF8BB78F7B4C
:1004A0008BBF43E050E05A83498310E188B3812732
:1004B00088BB64E670E080E090E064DE88B381276A
:1004C00088BB60E570E080E090E05CDEE981FA8165
:1004D0003197FA83E983EF2B49F7E8E3F0E0849161
:1004E000E2E3F0E0E490ECE2F0E0F490FF2009F4C5
:1004F0006FC18111C8DDEF2DF0E0EE0FFF1FE25E4E
:10050000FF4FA591B4918C91E82209F461C1B2DD4D
:100510008D35F2E09F070CF01FC1409260005092B1
:1005200061006092620070926300D7CFC701B6018C
:100530007DD269CF8FEF90E090936900809368003F
:100540006CCF98DDA981BA81A81BB90B14970CF464
:1005500088CF90DDBC01990F880B990B675C7140C7
:100560008109910926E232E040E050E008D228E318
:1005700032E040E050E01CD2CA01B9016E5C7F4F0E
:100580008F4F9F4F072E000C880B990BE7D26B0102
:100590007C01C0926E00D0926F00E0927000F092E9
:1005A000710040926000509261006092620070920F
:1005B0006300AC019B0162D32DEE3DE04EE35BE3B3
:1005C0005DD34B015C0128E834EF4BE35FE3C701E7
:1005D000B60154D39B01AC01C501B40128D222E974
:1005E0003CED44E352E422D26B017C0120E030E098
:1005F000A90140D320E030E040E05FE387FD17C071
:10060000C701B60114D277D26F3F710509F09CF48F
:100610007093690060936800809168009091690010
:100620000CDE28DD90937500809374001ACFC7010B
:10063000B601FCD1E8CF3092690020926800ECCF7F
:1006400019DDA981BA81A81BB90B14970CF023CF2F
:1006500080917300813009F02EC1C49A809172009C
:10066000882391F08091730081110EC0B5DD6093F5
:100670006A0070936B0080936C0090936D0081E032
:10068000809373001092720080917300882309F4A4
:10069000D3CE80917200882309F4CECE9DDDC09028
:1006A0006A00D0906B00E0906C00F0906D006C19C7
:1006B0007D098E099F0950D26B017C01C0926E00AA
:1006C000D0926F00E0927000F09271004092600052
:1006D000509261006092620070926300AC019B01D5
:1006E000CDD22DEE3DE04EE35BE3C8D24B015C0181
:1006F00028E834EF4BE35FE3C701B601BFD29B01AB
:10070000AC01C501B40193D122E93CED44E352E4CC
:100710008DD16B017C0120E030E0A901ABD220E05B
:1007200030E040E05FE387FD21C1C701B6017FD122
:10073000E2D16F3F710511F00CF01CC1709369009C
:1007400060936800809168009091690076DD109256
:1007500073001092720070CE9C012D5532402836E5
:10076000310568F420E030E040E45FE3209360006E
:10077000309361004093620050936300AECE9C01C1
:10078000255C32402836310568F480E090E0A0E036
:10079000BFE38093600090936100A0936200B093E8
:1007A00063009BCE9C012D5233402836310528F43E
:1007B00023EC35EF48EA5EE3D9CF855993408B3679
:1007C000910508F08ACE80E090E0A0E8BEE3E1CF9A
:1007D00003DD6B01770FEE08FF08FEDC6C197D0965
:1007E0008E099F096233710581059105B0F320914F
:1007F000600030916100409162005091630060910F
:100800006E0070916F00809170009091710036D2EF
:100810006B017C01AC019B0131D22DEE3DE04EE33A
:100820005BE32CD24B015C0128E834EF4BE35FE340
:10083000C701B60123D29B01AC01C501B401F7D0B9
:1008400022E93CED44E352E4F1D06B017C0120E06D
:1008500030E0A9010FD220E030E040E05FE387FD07
:1008600021C0C701B601E3D046D16F3F710509F041
:10087000ECF4709369006093680080916800909137
:100880006900DBDCF7DB909375008093740085B71B
:10089000826085BF8BB780648BBF1092730010920B
:1008A0007200D6CEC701B601C1D0DECF309269004A
:1008B00020926800E2CF8090600090906100A0904C
:1008C0006200B090630020916E0030916F00409103
:1008D00070005091710029833A834B835C837CDCE8
:1008E0006B017C018091640090916500A09166008D
:1008F000B0916700A7019601281B390B4A0B5B0BCF
:100900002D833E834F83588729813A814B815C81B7
:10091000C501B401B3D14B015C0120E030E0A90175
:10092000A9D120E030E040E05FE387FD1BC0C501B6
:10093000B4017DD0E0D02D813E814F8158852617AE
:1009400037074807590708F489CEC0926400D0924F
:100950006500E0926600F092670088B390E1892715
:1009600088BB7CCEC501B40161D0E4CFC701B6011C
:100970005DD0DECE3092690020926800E3CEEE2793
:10098000FF27AA27BB2708C0A20FB31FE41FF51F2C
:10099000220F331F441F551F9695879577956795AE
:1009A00098F37040A9F7009799F7BD01CF0108951A
:1009B000052E97FB16F400940FD057FD05D014D0E8
:1009C00007FC02D046F408C050954095309521951B
:1009D0003F4F4F4F5F4F089590958095709561956B
:1009E0007F4F8F4F9F4F0895A1E21A2EAA1BBB1B6A
:1009F000FD010DC0AA1FBB1FEE1FFF1FA217B307EB
:100A0000E407F50720F0A21BB30BE40BF50B661F00
:100A1000771F881F991F1A9469F7609570958095C4
:100A200090959B01AC01BD01CF0108955058BB27A3
:100A3000AA270ED0E5C0D6D030F0DBD020F031F4BC
:100A40009F3F11F41EF4CBC00EF4E095E7FBC1C04C
:100A5000E92FE7D080F3BA17620773078407950779
:100A600018F071F49EF5FFC00EF4E0950B2EBA2F2E
:100A7000A02D0B01B90190010C01CA01A0011124A4
:100A8000FF27591B99F0593F50F4503E68F11A1650
:100A9000F040A22F232F342F4427585FF3CF4695E1
:100AA00037952795A795F0405395C9F77EF41F1603
:100AB000BA0B620B730B840BBAF09150A1F0FF0FCD
:100AC000BB1F661F771F881FC2F70EC0BA0F621FB9
:100AD000731F841F48F4879577956795B795F795A9
:100AE0009E3F08F0B3CF9395880F08F09927EE0F3B
:100AF00097958795089504D06894B111B5C008956D
:100B000098D088F09F5790F0B92F9927B751A0F04F
:100B1000D1F0660F771F881F991F1AF0BA95C9F791
:100B200012C0B13081F09FD0B1E008959CC0672F12
:100B3000782F8827B85F39F0B93FCCF38695779541
:100B40006795B395D9F73EF490958095709561952A
:100B50007F4F8F4F9F4F0895E89409C097FB3EF455
:100B600090958095709561957F4F8F4F9F4F9923FA
:100B7000A9F0F92F96E9BB279395F6958795779578
:100B80006795B795F111F8CFFAF4BB0F11F460FF38
:100B90001BC06F5F7F4F8F4F9F4F16C0882311F090
:100BA00096E911C0772321F09EE8872F762F05C0A4
:100BB000662371F096E8862F70E060E02AF09A953F
:100BC000660F771F881FDAF7880F9695879597F934
:100BD000089597F99F6780E870E060E008959FEFBF
:100BE00080EC089500240A941616170618060906C4
:100BF000089500240A941216130614060506089593
:100C0000092E0394000C11F4882352F0BB0F40F41A
:100C1000BF2B11F460FF04C06F5F7F4F8F4F9F4F5A
:100C2000089557FD9058440F551F59F05F3F71F0DC
:100C30004795880F97FB991F61F09F3F79F0879543
:100C40000895121613061406551FF2CF4695F1DFCC
:100C500008C0161617061806991FF1CF869571055C
:100C6000610508940895E894BB2766277727CB0190
:100C700097F908956ED008F48FEF08950AD0C0CF89
:100C8000B1DF28F0B6DF18F0952309F0A2CFA7CF87
:100C9000EBCFC7DFA8F39923D9F35523C9F3950FF9
:100CA00050E0551FAA27EE27FF27BB2700240894F2
:100CB000679520F4E20FF31FB41F0A1E220F331FA3
:100CC000441FAA1F6695A9F7779530F4F30FB41F58
:100CD0000A1E121E08F46395330F441FAA1F221F19
:100CE000769599F7879520F4B40F0A1E121E631F9C
:100CF000440FAA1F221F331F8695A9F7862F712D37
:100D0000602D11249F5750408AF0E1F088234AF06B
:100D1000EE0FFF1FBB1F661F771F881F91505040AB
:100D2000A9F79E3F510570F054CF9ECF5F3FECF383
:100D3000983EDCF3869577956795B795F795E79597
:100D40009F5FC1F7FE2B880F911D9695879597F9A8
:100D50000895990F0008550FAA0BE0E8FEEF16164C
:100D60001706E807F907C0F012161306E407F5079F
:100D700098F0621B730B840B950B39F40A2661F013
:100D8000232B242B252B21F408950A2609F4A140B6
:0E0D9000A6958FEF811D811D0895F894FFCF69
:040D9E000000803F92
:00000001FF
