:100000001DC042C136C035C034C0F4C032C031C09A
:1000100030C02FC02EC02DC02CC02BC02AC0000065
:100020000000360000000000380002020202020256
:1000300001020408102001020000040011241FBE68
:10004000CFE5D2E0DEBFCDBF10E0A0E6B0E0E8EF44
:10005000FBE002C005900D92A436B107D9F720E06D
:10006000A4E6B0E001C01D92AF37B207E1F71BD1A3
:10007000C1C5C6CF813021F48AB58F778ABD089576
:10008000823019F48AB58F7DF9CF833021F480B79F
:100090008F7D80BF0895843019F48CB58F7D8CBD21
:1000A00008951F93CF93DF93162F87FF09C08F7793
:1000B00071F1813071F1823071F1833071F18FEF24
:1000C000282F30E0F901EA5CFF4F8491F901E05DEF
:1000D000FF4FD491F901E65DFF4FC491CC2399F015
:1000E0008111C8DFEC2FF0E0EE0FFF1FEC5DFF4F3A
:1000F000A591B4918FB7111112C0F894EC91D095DD
:10010000DE23DC938FBFDF91CF911F91089585E0AF
:10011000D7CF82E0D5CF84E0D3CF83E0D1CFF8949E
:10012000EC91DE2BEECF87B987B187B9369A369935
:10013000FECF84B195B108953FB7F89480917B00CC
:1001400090917C00A0917D00B0917E0022B708B60E
:1001500001FE05C02F3F19F00196A11DB11D3FBF43
:10016000BA2FA92F982F8827BC01CD01620F711DCE
:10017000811D911D43E0660F771F881F991F4A95C7
:10018000D1F70895EF92FF920F931F93CF93DF93D0
:10019000E82EF62EC7E0D0E0042F10E0B8010C2EB8
:1001A00002C0759567950A94E2F761708E2D79DF2C
:1001B00061E08F2D76DF60E08F2D73DF219770F780
:1001C000DF91CF911F910F91FF90EF900895CF9302
:1001D000DF93EC0160E081E064DF4D2F60E083E0BD
:1001E000D1DF4C2F60E083E0CDDF61E081E0DF9183
:1001F000CF9157CF1F920F920FB60F9211242F93CA
:100200003F938F939F93AF93BF938091770090918B
:100210007800A0917900B0917A003091760026E0C4
:10022000230F2D3768F129E8230F0396A11DB11D77
:10023000209376008093770090937800A0937900C4
:10024000B0937A0080917B0090917C00A0917D001A
:10025000B0917E000196A11DB11D80937B0090930B
:100260007C00A0937D00B0937E00BF91AF919F91E1
:100270008F913F912F910F900FBE0F901F90189567
:100280000296A11DB11DD4CF1F920F920FB60F92EF
:1002900011248F9381E080936F008F910F900FBE98
:1002A0000F901F90189581B781BF8AB582608ABD73
:1002B0008AB581608ABD83B7887F836083BF789465
:1002C00089B7826089BF80B7807F80BF80B7806830
:1002D00080BF80B7806480BF8CB580648CBD8FEF99
:1002E0008DBD80B7876080BF86B18877866886B904
:1002F000379A85B7826085BF8BB780648BBF8FB715
:1003000080688FBF87B38B6187BBBA98C29A379AD0
:1003100085E009DF9093750080937400BC01990F0C
:10032000880B990B48D36093700070937100809391
:10033000720090937300C12CD12C20E8E22E2FE3A1
:10034000F22E0FE710E03CE2232E30E0332E80E067
:10035000EADEC0917400D09175008C1B9D0B1816BD
:1003600019060CF0ACC080E0DEDE8C1B9D0B049700
:100370000CF0ACC080916E00882309F4DCC180E0F1
:10038000D2DEC0917400D09175008C1B9D0B1816A5
:1003900019060CF013C180E0C6DE8C1B9D0B049780
:1003A0000CF413C110926E0010926F0060E084E0B4
:1003B00078DE80E0B8DEC0926000D0926100E0920A
:1003C0006200F0926300E8E3F0E08491E2E3F0E0A1
:1003D000C491F101D491DD2369F081114BDEED2F41
:1003E000F0E0EE0FFF1FE25EFF4FA591B4918C91FC
:1003F000C823F9F68090700090907100A090720070
:10040000B0907300A5019401C501B40188D32DEE0D
:100410003DE04EE35BE383D32B013C0128E834EF5E
:100420004BE35FE3C501B4017AD39B01AC01C30187
:10043000B20126D222E93CED44E352E420D24B0142
:100440005C0120E030E0A90166D320E030E040E02C
:100450005FE387FD58C1C501B40112D279D260387B
:1004600071050CF054C1709369006093680080912D
:10047000680090916900ABDE60E083E012DE5CDE34
:10048000EB0188E2882E912CA12CB12C55DE6C1B3F
:100490007D0B683E734008F447C181149104A104A8
:1004A000B10409F039C161E083E0FBDD10926F0017
:1004B00080E039DE909375008093740086C080E000
:1004C00032DEC81BD90B24970CF454CF80E02BDE0E
:1004D000BC01990F880B990B675C714081099109E8
:1004E00026E232E040E050E073D128E332E040E021
:1004F00050E087D1CA01B9016E5C7F4F8F4F9F4F8B
:10050000072E000C880B990B56D24B015C01809290
:10051000700090927100A0927200B0927300C0922D
:100520006000D0926100E0926200F0926300AC0142
:100530009B01F5D22DEE3DE04EE35BE3F0D22B01C3
:100540003C0128E834EF4BE35FE3C501B401E7D297
:100550009B01AC01C301B20193D122E93CED44E31C
:1005600052E48DD14B015C0120E030E0A901D3D2EF
:1005700020E030E040E05FE387FD17C0C501B40133
:100580007FD1E6D160387105A4F47093690060935F
:100590006800809168009091690019DE80E0C3DDF9
:1005A0009093750080937400E5CEC501B40167D1C6
:1005B000E8CF1093690000936800EBCF80E0B3DDD3
:1005C000C81BD90B24970CF0EDCE80916E008130C2
:1005D00009F0B1C0C49880916F008130D9F4909136
:1005E0006E00911117C09FB7F89440917700509119
:1005F00078006091790070917A009FBF40936A0003
:1006000050936B0060936C0070936D0080936E004C
:1006100010926F0080916E00813009F098CE809129
:100620006F00813009F093CE2FB7F8946091770076
:10063000709178008091790090917A002FBF80901E
:100640006A0090906B00A0906C00B0906D006819EB
:1006500079098A099B09ADD14B015C018092700038
:1006600090927100A0927200B0927300C0926000EC
:10067000D0926100E0926200F0926300AC019B01B5
:100680004ED22DEE3DE04EE35BE349D22B013C011F
:1006900028E834EF4BE35FE3C501B40140D29B018E
:1006A000AC01C301B201ECD022E93CED44E352E4D9
:1006B000E6D04B015C0120E030E0A9012CD220E023
:1006C00030E040E05FE387FD7AC0C501B401D8D0D7
:1006D0003FD1603871050CF076C07093690060936B
:1006E0006800809168009091690071DD10926A0045
:1006F00010926B0010926C0010926D0010926E00C0
:1007000010926F0024CEC501B401B9D0A7CE1093CA
:10071000690000936800ABCEF1E08F1A9108A10840
:10072000B108C851DC4FB2CE81149104A104B104C8
:1007300009F0ACCEB8CE60917000709171008091DC
:10074000720090917300209160003091610040919F
:10075000620050916300EFB7F8948090770090901A
:100760007800A0907900B0907A00EFBFD8D12B012B
:100770003C018091640090916500A0916600B09169
:100780006700A5019401281B390B4A0B5B0BCA01BA
:10079000B9010FD19B01AC01C301B201D5D018162C
:1007A0000CF419CF8092640090926500A0926600CC
:1007B000B092670088B330E1832788BB0CCFC501B6
:1007C000B4015DD085CF109369000093680089CF94
:1007D000EE27FF27AA27BB2708C0A20FB31FE41FDD
:1007E000F51F220F331F441F551F96958795779548
:1007F000679598F37040A9F7009799F7BD01CF016D
:100800000895052E97FB16F400940FD057FD05D0E0
:1008100014D007FC02D046F408C05095409530959E
:1008200021953F4F4F4F5F4F08959095809570955C
:1008300061957F4F8F4F9F4F0895A1E21A2EAA1BFB
:10084000BB1BFD010DC0AA1FBB1FEE1FFF1FA21780
:10085000B307E407F50720F0A21BB30BE40BF50B7D
:10086000661F771F881F991F1A9469F76095709506
:10087000809590959B01AC01BD01CF010895505822
:10088000BB27AA270ED00DC1FED030F003D120F037
:1008900031F49F3F11F41EF4F3C00EF4E095E7FB32
:1008A000E9C0E92F0FD180F3BA17620773078407F5
:1008B000950718F071F49EF527C10EF4E0950B2E04
:1008C000BA2FA02D0B01B90190010C01CA01A001A2
:1008D0001124FF27591B99F0593F50F4503E68F1FD
:1008E0001A16F040A22F232F342F4427585FF3CF3E
:1008F000469537952795A795F0405395C9F77EF40F
:100900001F16BA0B620B730B840BBAF09150A1F057
:10091000FF0FBB1F661F771F881FC2F70EC0BA0FDD
:10092000621F731F841F48F4879577956795B79565
:10093000F7959E3F08F0B3CF9395880F08F099275D
:10094000EE0F97958795089571D008F481E008958A
:1009500004D06894B111D9C00895BCD088F09F57D5
:1009600090F0B92F9927B751A0F0D1F0660F771FFB
:10097000881F991F1AF0BA95C9F712C0B13081F0DB
:10098000C3D0B1E00895C0C0672F782F8827B85F23
:1009900039F0B93FCCF3869577956795B395D9F73C
:1009A0003EF490958095709561957F4F8F4F9F4F46
:1009B0000895E89409C097FB3EF490958095709552
:1009C00061957F4F8F4F9F4F9923A9F0F92F96E99B
:1009D000BB279395F695879577956795B795F11110
:1009E000F8CFFAF4BB0F11F460FF1BC06F5F7F4FAD
:1009F0008F4F9F4F16C0882311F096E911C07723BF
:100A000021F09EE8872F762F05C0662371F096E8C7
:100A1000862F70E060E02AF09A95660F771F881F96
:100A2000DAF7880F9695879597F90895990F00083A
:100A3000550FAA0BE0E8FEEF16161706E807F907B0
:100A4000C0F012161306E407F50798F0621B730B4B
:100A5000840B950B39F40A2661F0232B242B252BCC
:100A600021F408950A2609F4A140A6958FEF811D6F
:100A7000811D089597F99F6780E870E060E0089510
:100A80009FEF80EC089500240A94161617061806A6
:100A90000906089500240A94121613061406050682
:100AA0000895092E0394000C11F4882352F0BB0F13
:100AB00040F4BF2B11F460FF04C06F5F7F4F8F4F76
:100AC0009F4F089557FD9058440F551F59F05F3FB1
:100AD00071F04795880F97FB991F61F09F3F79F060
:100AE00087950895121613061406551FF2CF4695E2
:100AF000F1DF08C0161617061806991FF1CF869564
:100B00007105610508940895E894BB276627772747
:100B1000CB0197F908958ADF08F48FEF08950AD082
:100B2000C0CFB1DF28F0B6DF18F0952309F0A2CFCF
:100B3000A7CFEBCFC7DFA8F39923D9F35523C9F388
:100B4000950F50E0551FAA27EE27FF27BB2700244B
:100B50000894679520F4E20FF31FB41F0A1E220FBA
:100B6000331F441FAA1F6695A9F7779530F4F30F3A
:100B7000B41F0A1E121E08F46395330F441FAA1FE8
:100B8000221F769599F7879520F4B40F0A1E121E3E
:100B9000631F440FAA1F221F331F8695A9F7862FB4
:100BA000712D602D11249F5750408AF0E1F0882369
:100BB0004AF0EE0FFF1FBB1F661F771F881F915063
:100BC0005040A9F79E3F510570F054CF9ECF5F3F34
:100BD000ECF3983EDCF3869577956795B795F79596
:100BE000E7959F5FC1F7FE2B880F911D969587951E
:080BF00097F90895F894FFCF76
:040BF8000000803F3A
:00000001FF
