:100000001DC0C0C136C035C034C072C132C031C09D
:1000100030C02FC02EC02DC02CC02BC02AC0000065
:100020000000380000000000360002020202020256
:1000300001020408102001020000040011241FBE68
:10004000CFE5D2E0DEBFCDBF10E0A0E6B0E0ECE34C
:10005000FFE002C005900D92A436B107D9F720E069
:10006000A4E6B0E001C01D92AF37B207E1F799D125
:1000700063C7C6CF17B887B187B9369A3699FECF0E
:1000800084B195B10895813021F48AB58F778ABD06
:100090000895823019F48AB58F7DF9CF833021F429
:1000A00080B78F7D80BF0895843019F48CB58F7D23
:1000B0008CBD0895CF93DF9387FF09C08F7751F1EF
:1000C000813051F1823051F1833051F18FEF282F7F
:1000D00030E0F901EA5CFF4F8491F901E05DFF4FE8
:1000E000D491F901E65DFF4FC491CC23D9F0811181
:1000F000CADFEC2FF0E0EE0FFF1FEC5DFF4FA59184
:10010000B491EC91ED2381E090E009F480E0DF917F
:10011000CF91089585E0DBCF82E0D9CF84E0D7CFBF
:1001200083E0D5CF80E090E0F2CF1F93CF93DF93B1
:10013000162F87FF09C08F7771F1813071F18230FE
:1001400071F1833071F18FEF282F30E0F901EA5C13
:10015000FF4F8491F901E05DFF4FD491F901E65D15
:10016000FF4FC491CC2399F081118DDFEC2FF0E08B
:10017000EE0FFF1FE25EFF4FA591B4918FB71111F3
:1001800012C0F894EC91D095DE23DC938FBFDF9101
:10019000CF911F91089585E0D7CF82E0D5CF84E03D
:1001A000D3CF83E0D1CFF894EC91DE2BEECF3FB7E5
:1001B000F89480917B0090917C00A0917D00B0919B
:1001C0007E0022B708B601FE05C02F3F19F0019648
:1001D000A11DB11D3FBFBA2FA92F982F8827BC01A1
:1001E000CD01620F711D811D911D43E0660F771FC8
:1001F000881F991F4A95D1F70895CF92DF92EF9209
:10020000FF92CF93DF936B017C01D1DFEB01C1142F
:10021000D104E104F10441F412C081E0C81AD1080C
:10022000E108F108C851DC4FC2DF6C1B7D0B683E52
:10023000734068F3C114D104E104F10471F7DF9154
:10024000CF91FF90EF90DF90CF9008951F93CF93C1
:10025000DF93C3E0D0E010E188B3812788BB62E37D
:1002600070E080E090E0C9DF88B3812788BB6EE151
:1002700070E080E090E0C1DF219771F7DF91CF91CE
:100280001F910895EF92FF920F931F93CF93DF93E7
:10029000E82EF62EC7E0D0E0042F10E0B8010C2EB7
:1002A00002C0759567950A94E2F761708E2D3DDF67
:1002B00061E08F2D3ADF60E08F2D37DF219770F7F7
:1002C000DF91CF911F910F91FF90EF900895CF9301
:1002D000C82F60E081E029DF41E160E083E0D2DF08
:1002E0004C2F60E083E0CEDF61E081E0CF911DCF55
:1002F0001F920F920FB60F9211242F933F938F935B
:100300009F93AF93BF938091770090917800A091D5
:100310007900B0917A003091760026E0230F2D37D6
:1003200068F129E8230F0396A11DB11D20937600E3
:100330008093770090937800A0937900B0937A002F
:1003400080917B0090917C00A0917D00B0917E0017
:100350000196A11DB11D80937B0090937C00A0931A
:100360007D00B0937E00BF91AF919F918F913F919F
:100370002F910F900FBE0F901F9018950296A11D00
:10038000B11DD4CF1F920F920FB60F9211248F93ED
:1003900081E0809372008F910F900FBE0F901F909D
:1003A0001895CF93DF93CDB7DEB728970FB6F894A3
:1003B000DEBF0FBECDBF81B781BF8AB582608ABD67
:1003C0008AB581608ABD83B7887F836083BF789454
:1003D00089B7826089BF80B7807F80BF80B780681F
:1003E00080BF80B7806480BF8CB580648CBD8FEF88
:1003F0008DBD80B7876080BF86B18877866886B9F3
:10040000379A85B7826085BF8BB780648BBF8FB703
:1004100080688FBF87B38B6187BBBA98379A2ADE13
:100420009093750080937400BC01990F880B990B11
:10043000625C7140810991092FE132E040E050E0B7
:100440006DD32DE332E040E050E081D3CA01B90121
:10045000675C7F4F8F4F9F4F50D46B017C01C092E0
:100460006E00D0926F00E0927000F0927100AC01CB
:100470009B01D3D422EE37EF46E557E3CED44B01B0
:100480005C0123E33AE845E65EE3C701B601C5D463
:100490009B01AC01C501B40199D32EEB36EF41E6C7
:1004A00051E493D36B017C0120E030E0A901B1D489
:1004B00020E030E040E05FE387FDDCC0C701B6012B
:1004C00085D3E8D370936900609368006F3F71052E
:1004D00039F034F08FEF90E09093690080936800DA
:1004E00080916800909169009927F1DE4DE3442ED8
:1004F00042E0542E612C712C00E810E0BBDDE0904E
:100500007400F09075008E199F09181619060CF0EA
:10051000B5C0B0DD8E199F0904970CF0B7C080916B
:100520007300813009F015C2C49A8091720088234B
:10053000E1F080917300811118C02FB7F894809179
:10054000770090917800A0917900B0917A002FBF48
:1005500080936A0090936B00A0936C00B0936D0041
:1005600081E0809373001092720080917300882361
:1005700029F280917200882309F4C0CF2FB7F89434
:1005800060917700709178008091790090917A0065
:100590002FBF1092730010927200C0906A00D0902A
:1005A0006B00E0906C00F0906D006C197D098E0975
:1005B0009F09683E23E072078105910508F03FC25C
:1005C000603932E073078105910508F027C293D3A3
:1005D00060936E0070936F00809370009093710031
:1005E000812C912C80E8A82E8FE3B82E8092600099
:1005F00090926100A0926200B0926300C0906E0081
:10060000D0906F00E0907000F0907100A70196010B
:10061000C701B60102D422EE37EF46E557E3FDD31A
:100620004B015C0123E33AE845E65EE3C701B6010E
:10063000F4D39B01AC01C501B401C8D22EEB36EF57
:1006400041E651E4C2D26B017C0120E030E0A90117
:10065000E0D320E030E040E05FE387FDECC1C7017C
:10066000B601B4D217D37093690060936800CB01D0
:100670002EDE44CFC701B601A8D223CFFBDCE81A97
:10068000F90A24E0E216F1040CF449CF80917300DA
:10069000882309F4DCC0DADD85B78D7F85BF8BB791
:1006A0008F7B8BBF82E006DD019709F065C0E2DC3D
:1006B000863532E093076CF480E090E0A0E8BFE379
:1006C0008093600090936100A0936200B0936300F8
:1006D000E9CF9C01265532402A36310578F4812C29
:1006E000912C30E4A32E3FE3B32E809260009092D1
:1006F0006100A0926200B0926300D4CF9C01205CA4
:1007000032402A36310570F4A12CB12CC12C2FE3D4
:10071000D22EA0926000B0926100C0926200D0928E
:100720006300C0CF9C012A5233402B36310588F438
:1007300093ECC92E95EFD92E98EAE92E9EE3F92E77
:10074000C0926000D0926100E0926200F09263007B
:10075000A9CF855993408B36910508F0A3CF20E0AF
:1007600030E040E85EE32093600030936100409306
:1007700062005093630096CF62E370E080E090E007
:100780003CDD209160003091610040916200509109
:10079000630060916E0070916F0080917000909185
:1007A00071003BD36B017C01AC019B0136D322EE7F
:1007B00037EF46E557E331D34B015C0123E33AE8D9
:1007C00045E65EE3C701B60128D39B01AC01C50134
:1007D000B401FCD12EEB36EF41E651E4F6D16B01CA
:1007E0007C0120E030E0A90114D320E030E040E0BB
:1007F0005FE387FD21C0C701B601E8D14BD26F3F4F
:10080000710509F0ECF470936900609368008091C1
:100810006800909169005BDD2DDC909375008093FA
:10082000740085B7826085BF8BB780648BBF1092E0
:1008300073001092720073CEC701B601C6D1DECF2D
:100840008FEF90E09093690080936800E0CF12DC16
:10085000BC01990F880B990B625C71408109910969
:100860002FE132E040E050E059D1A30192016FD175
:10087000CA01B901675C7F4F8F4F9F4F072E000C55
:10088000880B990B3AD26B017C01C0926E00D0921A
:100890006F00E0927000F092710080E090E0A0E8BC
:1008A000BFE38093600090936100A0936200B093D7
:1008B0006300A7019601C701B601AFD222EE37EF60
:1008C00046E557E3AAD24B015C0123E33AE845E64B
:1008D0005EE3C701B601A1D29B01AC01C501B40121
:1008E00075D12EEB36EF41E651E46FD16B017C01FF
:1008F00020E030E0A9018DD220E030E040E05FE36D
:1009000087FD17C0C701B60161D1C4D16F3F710522
:10091000A1F09CF01093690000936800809168003A
:1009200090916900D4DCA6DB9093750080937400ED
:10093000F6CDC701B60149D1E8CF77FD05C0709368
:10094000690060936800EACF109269001092680015
:10095000E5CF60916000709161008091620090919C
:10096000630020916E0030916F00409170005091B3
:100970007100EFB7F8948090770090907800A09085
:100980007900B0907A008D829E82AF82B886EFBFE8
:10099000A0906400B0906500C0906600D0906700A1
:1009A00045015601CD80DE80EF80F884C818D90853
:1009B000EA08FB08C982DA82EB82FC822ED26B0144
:1009C0007C0120E030E0A90124D220E030E040E0CA
:1009D0005FE387FD1FC0C701B601F8D05BD1A980D6
:1009E000BA80CB80DC80A616B706C806D90608F404
:1009F0009CCDCD80DE80EF80F884C0926400D092E0
:100A00006500E0926600F092670088B390E1892764
:100A100088BB8BCDC701B601D8D0E0CF80E090EC89
:100A2000A3E2B4E480936E0090936F00A0937000F3
:100A3000B0937100D5CDC701B601C7D013CE06DC87
:100A400085B78D7F85BF8BB78F7B8BBF62E370E0EF
:100A500080E090E0D2DB82E02DDB019709F04DC011
:100A60001A82198289819A8132DC04DBBC01990FD8
:100A7000880B990B625C71408109910924E833E08D
:100A800040E050E04BD0A301920161D0CA01B9010E
:100A90006C597F4F8F4F9F4FB0DB29813A81275E82
:100AA0003F4F3A8329832D373105E1F644E650E084
:100AB0005A83498389819A810ADCDCDABC01990F67
:100AC000880B990B625C71408109910924E833E03D
:100AD00040E050E023D0A301920139D0CA01B9010E
:100AE0006C597F4F8F4F9F4F88DB89819A8149973F
:100AF0009A8389834996F1F6AECF809168009091F0
:100B00006900E5DB64E670E080E090E076DB85B7C5
:100B1000826085BF8BB780648BBFF0CCEE27FF2748
:100B2000AA27BB2708C0A20FB31FE41FF51F220F7F
:100B3000331F441F551F969587957795679598F3B2
:100B40007040A9F7009799F7BD01CF010895052ED0
:100B500097FB16F400940FD057FD05D014D007FC76
:100B600002D046F408C050954095309521953F4FEE
:100B70004F4F5F4F089590958095709561957F4F89
:100B80008F4F9F4F0895A1E21A2EAA1BBB1BFD0198
:100B90000DC0AA1FBB1FEE1FFF1FA217B307E4075C
:100BA000F50720F0A21BB30BE40BF50B661F771FB4
:100BB000881F991F1A9469F7609570958095909594
:100BC0009B01AC01BD01CF0108955058BB27AA2756
:100BD0000ED0E5C0D6D030F0DBD020F031F49F3F0E
:100BE00011F41EF4CBC00EF4E095E7FBC1C0E92F71
:100BF000E7D080F3BA17620773078407950718F0E8
:100C000071F49EF5FFC00EF4E0950B2EBA2FA02DC7
:100C10000B01B90190010C01CA01A0011124FF27A9
:100C2000591B99F0593F50F4503E68F11A16F040A4
:100C3000A22F232F342F4427585FF3CF46953795A3
:100C40002795A795F0405395C9F77EF41F16BA0B68
:100C5000620B730B840BBAF09150A1F0FF0FBB1F16
:100C6000661F771F881FC2F70EC0BA0F621F731F5F
:100C7000841F48F4879577956795B795F7959E3FBC
:100C800008F0B3CF9395880F08F09927EE0F97954A
:100C90008795089504D06894B111B5C0089598D08F
:100CA00088F09F5790F0B92F9927B751A0F0D1F055
:100CB000660F771F881F991F1AF0BA95C9F712C0DF
:100CC000B13081F09FD0B1E008959CC0672F782F9C
:100CD0008827B85F39F0B93FCCF38695779567954B
:100CE000B395D9F73EF490958095709561957F4FB7
:100CF0008F4F9F4F0895E89409C097FB3EF490955D
:100D00008095709561957F4F8F4F9F4F9923A9F0E4
:100D1000F92F96E9BB279395F69587957795679573
:100D2000B795F111F8CFFAF4BB0F11F460FF1BC0B7
:100D30006F5F7F4F8F4F9F4F16C0882311F096E94A
:100D400011C0772321F09EE8872F762F05C06623F8
:100D500071F096E8862F70E060E02AF09A95660FB1
:100D6000771F881FDAF7880F9695879597F908956A
:100D700097F99F6780E870E060E008959FEF80EC4E
:100D8000089500240A9416161706180609060895F1
:100D900000240A9412161306140605060895092E57
:100DA0000394000C11F4882352F0BB0F40F4BF2BC6
:100DB00011F460FF04C06F5F7F4F8F4F9F4F089506
:100DC00057FD9058440F551F59F05F3F71F04795FC
:100DD000880F97FB991F61F09F3F79F087950895E1
:100DE000121613061406551FF2CF4695F1DF08C000
:100DF000161617061806991FF1CF8695710561051D
:100E000008940895E894BB2766277727CB0197F9C4
:100E100008956ED008F48FEF08950AD0C0CFB1DFE7
:100E200028F0B6DF18F0952309F0A2CFA7CFEBCFBB
:100E3000C7DFA8F39923D9F35523C9F3950F50E0E1
:100E4000551FAA27EE27FF27BB2700240894679584
:100E500020F4E20FF31FB41F0A1E220F331F441F9A
:100E6000AA1F6695A9F7779530F4F30FB41F0A1EF1
:100E7000121E08F46395330F441FAA1F221F769594
:100E800099F7879520F4B40F0A1E121E631F440FB2
:100E9000AA1F221F331F8695A9F7862F712D602D5B
:100EA00011249F5750408AF0E1F088234AF0EE0F5A
:100EB000FF1FBB1F661F771F881F91505040A9F767
:100EC0009E3F510570F054CF9ECF5F3FECF3983EAC
:100ED000DCF3869577956795B795F795E7959F5FCE
:100EE000C1F7FE2B880F911D9695879597F9089568
:100EF000990F0008550FAA0BE0E8FEEF161617062B
:100F0000E807F907C0F012161306E407F50798F092
:100F1000621B730B840B950B39F40A2661F0232BAB
:100F2000242B252B21F408950A2609F4A140A69527
:0C0F30008FEF811D811D0895F894FFCF04
:040F3C000000803FF2
:00000001FF
