:100000001DC092C136C035C034C044C132C031C0F9
:1000100030C02FC02EC02DC02CC02BC02AC0000065
:100020000000360000000000380002020202020256
:1000300001020408102001020000040011241FBE68
:10004000CFE5D2E0DEBFCDBF10E0A0E6B0E0EAEA47
:10005000F0E102C005900D92A836B107D9F720E073
:10006000A8E6B0E001C01D92A338B207E1F76BD15A
:100070001AC8C6CF17B887B187B9369A3699FECF56
:1000800084B195B10895813021F48AB58F778ABD06
:100090000895823019F48AB58F7DF9CF833021F429
:1000A00080B78F7D80BF0895843019F48CB58F7D23
:1000B0008CBD08951F93CF93DF93162F87FF09C040
:1000C0008F7771F1813071F1823071F1833071F18C
:1000D0008FEF282F30E0F901EA5CFF4F8491F9019E
:1000E000E05DFF4FD491F901E65DFF4FC491CC2351
:1000F00099F08111C8DFEC2FF0E0EE0FFF1FEC5DEF
:10010000FF4FA591B4918FB7111112C0F894EC91E3
:10011000D095DE23DC938FBFDF91CF911F9108959F
:1001200085E0D7CF82E0D5CF84E0D3CF83E0D1CFB5
:10013000F894EC91DE2BEECF3FB7F89480917F00DE
:1001400090918000A0918100B091820022B708B602
:1001500001FE05C02F3F19F00196A11DB11D3FBF43
:10016000BA2FA92F982F8827BC01CD01620F711DCE
:10017000811D911D43E0660F771F881F991F4A95C7
:10018000D1F70895CF92DF92EF92FF92CF93DF9352
:100190006B017C01D1DFEB01CFDF6C1B7D0B683E77
:1001A0007340A0F0C114D104E104F10439F4DF91EB
:1001B000CF91FF90EF90DF90CF90089581E0C81A23
:1001C000D108E108F108C851DC4FE6CFC114D104D1
:1001D000E104F10409F7EBCF1F93CF93DF93C3E062
:1001E000D0E010E188B3812788BB62E370E080E053
:1001F00090E0C8DF88B3812788BB6EE170E080E0C3
:1002000090E0C0DF219771F7DF91CF911F910895A2
:100210002FB7F89460917B0070917C0080917D00F5
:1002200090917E002FBF0895EF92FF920F931F933E
:10023000CF93DF93E82EF62EC7E0D0E0042F10E036
:10024000B8010C2E02C0759567950A94E2F76170AB
:100250008E2D30DF61E08F2D2DDF60E08F2D2ADFC6
:10026000219770F7DF91CF911F910F91FF90EF9041
:100270000895CF93C82F60E081E01CDF41E160E08A
:1002800083E0D2DF4C2F60E083E0CEDF61E081E0ED
:10029000CF9110CF1F920F920FB60F9211242F9370
:1002A0003F938F939F93AF93BF9380917B009091E7
:1002B0007C00A0917D00B0917E0030917A0026E014
:1002C000230F2D3768F129E8230F0396A11DB11DD7
:1002D00020937A0080937B0090937C00A0937D0014
:1002E000B0937E0080917F0090918000A09181006A
:1002F000B09182000196A11DB11D80937F00909363
:100300008000A0938100B0938200BF91AF919F9134
:100310008F913F912F910F900FBE0F901F901895C6
:100320000296A11DB11DD4CF1F920F920FB60F924E
:1003300011248F9381E0809376008F910F900FBEF0
:100340000F901F901895CF93DF9300D000D0CDB7BA
:10035000DEB781B781BF8AB582608ABD8AB5816008
:100360008ABD83B7887F836083BF789489B78260B2
:1003700089BF80B7807F80BF80B7806880BF80B72B
:10038000806480BF8CB580648CBD8FEF8DBD80B7DD
:10039000876080BF86B18877866886B9379A85B7C7
:1003A000826085BF8BB780648BBF8FB780688FBF3B
:1003B00087B38B6187BBBA98379A5CDE90937900DC
:1003C00080937800BC01990F880B990B625C714097
:1003D000810991092FE132E040E050E056D42DE34D
:1003E00032E040E050E06AD4CA01B901675C7F4F57
:1003F0008F4F9F4F39D56B017C01C0927200D09214
:100400007300E0927400F0927500AC019B01BCD5C2
:1004100022EE37EF46E557E3B7D54B015C0123E306
:100420003AE845E65EE3C701B601AED59B01AC01F3
:10043000C501B40182D42EEB36EF41E651E47CD401
:100440006B017C0120E030E0A9019AD520E030E08A
:1004500040E05FE387FDD8C0C701B6016ED4D1D4B8
:100460006F3F710511F00CF0D3C070936D00609375
:100470006C0080916C0090916D009927FADEFADD96
:1004800020917800309179003A832983821B930B65
:10049000181619060CF0C3C0EDDD49815A81841B82
:1004A000950B04970CF0C3C080917700813009F060
:1004B00032C2C49A80917600882391F080917700AF
:1004C00081110EC0A5DE60936E0070936F00809363
:1004D00070009093710081E0809377001092760015
:1004E00080917700882309F474C080917600882376
:1004F00009F46FC08DDE10927700109276000091A3
:100500006E0010916F002091700030917100601B9F
:10051000710B820B930B683E33E0730781059105E5
:1005200008F05FC2603942E074078105910508F068
:1005300047C298D4609372007093730080937400E4
:100540009093750080E090E0A0E8BFE380936000A6
:1005500090936100A0936200B0936300C09072001A
:10056000D0907300E0907400F0907500A7019601A0
:10057000C701B60109D522EE37EF46E557E304D5AA
:100580004B015C0123E33AE845E65EE3C701B601AF
:10059000FBD49B01AC01C501B401CFD32EEB36EFE8
:1005A00041E651E4C9D36B017C0120E030E0A901B0
:1005B000E7D420E030E040E05FE387FD0EC2C701F2
:1005C000B601BBD31ED470936D0060936C00CB0159
:1005D00050DE80917700882309F451CF19DE009115
:1005E0006E0010916F002091700030917100601BBF
:1005F000710B820B930B683B7B408105910508F4DE
:100600003ECF109277003BCFC701B60195D327CFDD
:100610008FEF90E090936D0080936C002ACF2ADDDD
:10062000A981BA81A81BB90B14970CF43DCF809116
:100630007700882309F4E9C0CFDD85B78D7F85BFBA
:100640008BB78F7B8BBF38E3432E30E0532E02E312
:1006500010E0C12CD12CE12C4FE3F42E812C912CF5
:1006600050E8A52E5FE3B52EF2018491F801649065
:10067000ECE2F0E07490772009F45CC0811103DDB6
:10068000E72DF0E0EE0FFF1FE25EFF4FA591B49162
:100690008C91682209F44EC0EDDC8635F2E09F07AC
:1006A0004CF48092600090926100A0926200B0923F
:1006B0006300DACF9C01265532402A36310568F4B2
:1006C00020E030E040E45FE320936000309361007D
:1006D0004093620050936300C7CF9C01205C32407E
:1006E0002A36310548F4C0926000D0926100E09251
:1006F0006200F0926300B8CF9C012A5233402B363F
:10070000310568F483EC95EFA8EABEE380936000BE
:1007100090936100A0936200B0936300A5CF8559C8
:1007200093408B36910508F09FCF20E030E040E801
:100730005EE3CACF62E370E080E090E023DD2091C9
:1007400060003091610040916200509163006091BF
:10075000720070917300809174009091750014D4B0
:100760006B017C01AC019B010FD422EE37EF46E513
:1007700057E30AD44B015C0123E33AE845E65EE324
:10078000C701B60101D49B01AC01C501B401D5D2AA
:100790002EEB36EF41E651E4CFD26B017C0120E035
:1007A00030E0A901EDD320E030E040E05FE387FDD9
:1007B00021C0C701B601C1D224D36F3F710509F032
:1007C000ECF470936D0060936C0080916C009091DC
:1007D0006D004FDD4FDC909379008093780085B7F2
:1007E000826085BF8BB780648BBF109277001092B8
:1007F00076005ACEC701B6019FD2DECF8FEF90E0D0
:1008000090936D0080936C00E0CF34DCBC01990FB5
:10081000880B990B625C7140810991092FE132E0EC
:1008200040E050E032D22DE332E040E050E046D2EA
:10083000CA01B901675C7F4F8F4F9F4F072E000C95
:10084000880B990B11D36B017C01C0927200D0927E
:100850007300E0927400F092750080E090E0A0E8F0
:10086000BFE38093600090936100A0936200B09317
:100870006300A7019601C701B60186D322EE37EFC8
:1008800046E557E381D34B015C0123E33AE845E6B3
:100890005EE3C701B60178D39B01AC01C501B40189
:1008A0004CD22EEB36EF41E651E446D26B017C018F
:1008B00020E030E0A90164D320E030E040E05FE3D5
:1008C00087FD19C0C701B60138D29BD26F3F7105B1
:1008D000B1F0ACF080E890E090936D0080936C00F4
:1008E00080916C0090916D00C4DCC4DB9093790022
:1008F00080937800D9CDC701B6011ED2E6CF77FD2F
:1009000005C070936D0060936C00EACF10926D008B
:1009100010926C00E5CF8090600090906100A090F4
:100920006200B0906300409072005090730060903D
:100930007400709075006CDC6B017C018091680024
:1009400090916900A0916A00B0916B00A701960197
:10095000281B390B4A0B5B0B29833A834B835C833F
:10096000A3019201C501B4010FD34B015C0120E04A
:1009700030E0A90105D320E030E040E05FE387FDEF
:100980001BC0C501B401D9D13CD229813A814B8128
:100990005C81261737074807590708F48BCDC092AA
:1009A0006800D0926900E0926A00F0926B0088B310
:1009B00090E1892788BB7ECDC501B401BDD1E4CFCC
:1009C00080E090ECA3E2B4E4809372009093730013
:1009D000A0937400B0937500B5CDC701B601ACD13A
:1009E000F1CDFADB47DBBC01990F880B990B625CF8
:1009F0007140810991092CEA34EF4FEF5FEF45D147
:100A00002DE332E040E050E059D169017A015BE723
:100A1000C51654EFD5065FEFE506F5060CF476C073
:100A2000DDD0A70196012A57344F4F4F5F4F46D173
:100A30006B017C01A2E3CA0ED11CE11CF11C62E334
:100A400070E080E090E09EDB812C912C54010D2C15
:100A5000000CEE08FF0880917600811163C0D8DB9E
:100A60002B013C0180E090E0DC01481459046A0449
:100A70007B0431F0D301C20188199909AA09BB0985
:100A80008C159D05AE05BF0530F3A8D022E030E0FF
:100A900040E050E013D1DC01CB010197A109B1097D
:100AA00020916C0030916D00820F931FE2DBE2DA3F
:100AB000BC01990F880B990B625C71408109910907
:100AC0002CEA34EF4FEF5FEFE0D02DE332E040E06F
:100AD00050E0F4D069017A01BBE7CB16B4EFDB0636
:100AE000BFEFEB06FB06C4F079D0A70196012A57A9
:100AF000344F4F4F5F4FE2D06B017C01E2E3CE0EEB
:100B0000D11CE11CF11C53014201A1CF92E3C92E7B
:100B1000D12CE12CF12C93CF82E3C82ED12CE12CE7
:100B2000F12CF1CF1092760064E670E080E090E066
:100B300029DBA0DA909379008093780080916C0093
:100B400090916D0045CD8F929F92AF92BF92CF92C0
:100B5000DF92EF92FF92CF93DF93EC01688179816E
:100B60008A819B81611571058105910521F464E2FB
:100B700079ED8BE597E02DE133EF41E050E09ED039
:100B800049015A0127EA31E440E050E07ED06B0190
:100B90007C012CEE34EF4FEF5FEFC501B40175D04F
:100BA000C60ED71EE81EF91EF7FE06C081E0C81A61
:100BB000D108E10880E8F80AC882D982EA82FB827B
:100BC000C701B6019F77DF91CF91FF90EF90DF9043
:100BD000CF90BF90AF909F908F9008958F929F92EB
:100BE000AF92BF92CF92DF92EF92FF92609164003A
:100BF00070916500809166009091670061157105A4
:100C00008105910521F464E279ED8BE597E02DE112
:100C100033EF41E050E052D049015A0127EA31E474
:100C200040E050E032D06B017C012CEE34EF4FEF0E
:100C30005FEFC501B40129D0C60ED71EE81EF91E0C
:100C4000F7FE06C081E0C81AD108E10880E8F80A7A
:100C5000C0926400D0926500E0926600F092670056
:100C6000C701B6019F77FF90EF90DF90CF90BF90C4
:100C7000AF909F908F90089560936400709365008B
:100C800080936600909367000895EE27FF27AA27B8
:100C9000BB2708C0A20FB31FE41FF51F220F331F8D
:100CA000441F551F969587957795679598F37040E3
:100CB000A9F7009799F7BD01CF010895052E97FB7D
:100CC00016F400940FD057FD05D014D007FC02D0C5
:100CD00046F408C050954095309521953F4F4F4FB1
:100CE0005F4F089590958095709561957F4F8F4FD8
:100CF0009F4F0895A1E21A2EAA1BBB1BFD010DC038
:100D0000AA1FBB1FEE1FFF1FA217B307E407F507BB
:100D100020F0A21BB30BE40BF50B661F771F881F97
:100D2000991F1A9469F760957095809590959B012D
:100D3000AC01BD01CF0108955058BB27AA270ED0A2
:100D4000E5C0D6D030F0DBD020F031F49F3F11F475
:100D50001EF4CBC00EF4E095E7FBC1C0E92FE7D04D
:100D600080F3BA17620773078407950718F071F4C8
:100D70009EF5FFC00EF4E0950B2EBA2FA02D0B01AF
:100D8000B90190010C01CA01A0011124FF27591BD0
:100D900099F0593F50F4503E68F11A16F040A22FD6
:100DA000232F342F4427585FF3CF46953795279547
:100DB000A795F0405395C9F77EF41F16BA0B620B46
:100DC000730B840BBAF09150A1F0FF0FBB1F661F8D
:100DD000771F881FC2F70EC0BA0F621F731F841FD0
:100DE00048F4879577956795B795F7959E3F08F0F6
:100DF000B3CF9395880F08F09927EE0F97958795B5
:100E0000089504D06894B111B5C0089598D088F0C1
:100E10009F5790F0B92F9927B751A0F0D1F0660FE6
:100E2000771F881F991F1AF0BA95C9F712C0B13001
:100E300081F09FD0B1E008959CC0672F782F88275C
:100E4000B85F39F0B93FCCF3869577956795B39540
:100E5000D9F73EF490958095709561957F4F8F4FAF
:100E60009F4F0895E89409C097FB3EF490958095B4
:100E7000709561957F4F8F4F9F4F9923A9F0F92F60
:100E800096E9BB279395F695879577956795B795DE
:100E9000F111F8CFFAF4BB0F11F460FF1BC06F5FC4
:100EA0007F4F8F4F9F4F16C0882311F096E911C0D6
:100EB000772321F09EE8872F762F05C0662371F0F7
:100EC00096E8862F70E060E02AF09A95660F771F0B
:100ED000881FDAF7880F9695879597F9089597F9FF
:100EE0009F6780E870E060E008959FEF80EC0895D0
:100EF00000240A94161617061806090608950024F9
:100F00000A9412161306140605060895092E039472
:100F1000000C11F4882352F0BB0F40F4BF2B11F4E6
:100F200060FF04C06F5F7F4F8F4F9F4F089557FD45
:100F30009058440F551F59F05F3F71F04795880F47
:100F400097FB991F61F09F3F79F0879508951216DE
:100F500013061406551FF2CF4695F1DF08C016168A
:100F600017061806991FF1CF86957105610508943B
:100F70000895E894BB2766277727CB0197F9089552
:100F80006ED008F48FEF08950AD0C0CFB1DF28F0FB
:100F9000B6DF18F0952309F0A2CFA7CFEBCFC7DFBC
:100FA000A8F39923D9F35523C9F3950F50E0551FA2
:100FB000AA27EE27FF27BB2700240894679520F473
:100FC000E20FF31FB41F0A1E220F331F441FAA1F74
:100FD0006695A9F7779530F4F30FB41F0A1E121E19
:100FE00008F46395330F441FAA1F221F769599F7C3
:100FF000879520F4B40F0A1E121E631F440FAA1F08
:10100000221F331F8695A9F7862F712D602D11247D
:101010009F5750408AF0E1F088234AF0EE0FFF1FFF
:10102000BB1F661F771F881F91505040A9F79E3F36
:10103000510570F054CF9ECF5F3FECF3983EDCF348
:10104000869577956795B795F795E7959F5FC1F773
:10105000FE2B880F911D9695879597F90895990F06
:101060000008550FAA0BE0E8FEEF16161706E80772
:10107000F907C0F012161306E407F50798F0621B93
:10108000730B840B950B39F40A2661F0232B242B68
:10109000252B21F408950A2609F4A140A6958FEF87
:0A10A000811D811D0895F894FFCF13
:0810AA000000803F010000007E
:00000001FF
