:100000001DC0C0C136C035C034C072C132C031C09D
:1000100030C02FC02EC02DC02CC02BC02AC0000065
:100020000000380000000000360002020202020256
:1000300001020408102001020000040011241FBE68
:10004000CFE5D2E0DEBFCDBF10E0A0E6B0E0E2EF4A
:10005000FFE002C005900D92A836B107D9F720E065
:10006000A8E6B0E001C01D92A338B207E1F799D12C
:10007000BEC7C6CF17B887B187B9369A3699FECFB3
:1000800084B195B10895813021F48AB58F778ABD06
:100090000895823019F48AB58F7DF9CF833021F429
:1000A00080B78F7D80BF0895843019F48CB58F7D23
:1000B0008CBD0895CF93DF9387FF09C08F7751F1EF
:1000C000813051F1823051F1833051F18FEF282F7F
:1000D00030E0F901EA5CFF4F8491F901E05DFF4FE8
:1000E000D491F901E65DFF4FC491CC23D9F0811181
:1000F000CADFEC2FF0E0EE0FFF1FEC5DFF4FA59184
:10010000B491EC91ED2381E090E009F480E0DF917F
:10011000CF91089585E0DBCF82E0D9CF84E0D7CFBF
:1001200083E0D5CF80E090E0F2CF1F93CF93DF93B1
:10013000162F87FF09C08F7771F1813071F18230FE
:1001400071F1833071F18FEF282F30E0F901EA5C13
:10015000FF4F8491F901E05DFF4FD491F901E65D15
:10016000FF4FC491CC2399F081118DDFEC2FF0E08B
:10017000EE0FFF1FE25EFF4FA591B4918FB71111F3
:1001800012C0F894EC91D095DE23DC938FBFDF9101
:10019000CF911F91089585E0D7CF82E0D5CF84E03D
:1001A000D3CF83E0D1CFF894EC91DE2BEECF3FB7E5
:1001B000F89480917F0090918000A0918100B0918F
:1001C000820022B708B601FE05C02F3F19F0019644
:1001D000A11DB11D3FBFBA2FA92F982F8827BC01A1
:1001E000CD01620F711D811D911D43E0660F771FC8
:1001F000881F991F4A95D1F70895CF92DF92EF9209
:10020000FF92CF93DF936B017C01D1DFEB01C1142F
:10021000D104E104F10441F412C081E0C81AD1080C
:10022000E108F108C851DC4FC2DF6C1B7D0B683E52
:10023000734068F3C114D104E104F10471F7DF9154
:10024000CF91FF90EF90DF90CF9008951F93CF93C1
:10025000DF93C3E0D0E010E188B3812788BB62E37D
:1002600070E080E090E0C9DF88B3812788BB6EE151
:1002700070E080E090E0C1DF219771F7DF91CF91CE
:100280001F910895EF92FF920F931F93CF93DF93E7
:10029000E82EF62EC7E0D0E0042F10E0B8010C2EB7
:1002A00002C0759567950A94E2F761708E2D3DDF67
:1002B00061E08F2D3ADF60E08F2D37DF219770F7F7
:1002C000DF91CF911F910F91FF90EF900895CF9301
:1002D000C82F60E081E029DF41E160E083E0D2DF08
:1002E0004C2F60E083E0CEDF61E081E0CF911DCF55
:1002F0001F920F920FB60F9211242F933F938F935B
:100300009F93AF93BF9380917B0090917C00A091CD
:100310007D00B0917E0030917A0026E0230F2D37CA
:1003200068F129E8230F0396A11DB11D20937A00DF
:1003300080937B0090937C00A0937D00B0937E001F
:1003400080917F0090918000A0918100B091820007
:100350000196A11DB11D80937F0090938000A09312
:100360008100B0938200BF91AF919F918F913F9197
:100370002F910F900FBE0F901F9018950296A11D00
:10038000B11DD4CF1F920F920FB60F9211248F93ED
:1003900081E0809376008F910F900FBE0F901F9099
:1003A0001895CF93DF93CDB7DEB728970FB6F894A3
:1003B000DEBF0FBECDBF81B781BF8AB582608ABD67
:1003C0008AB581608ABD83B7887F836083BF789454
:1003D00089B7826089BF80B7807F80BF80B780681F
:1003E00080BF80B7806480BF8CB580648CBD8FEF88
:1003F0008DBD80B7876080BF86B18877866886B9F3
:10040000379A85B7826085BF8BB780648BBF8FB703
:1004100080688FBF87B38B6187BBBA98379A2ADE13
:100420009093790080937800BC01990F880B990B09
:10043000625C7140810991092FE132E040E050E0B7
:10044000C8D32DE332E040E050E0DCD3CA01B9016B
:10045000675C7F4F8F4F9F4FABD46B017C01C09285
:100460007200D0927300E0927400F0927500AC01BB
:100470009B012ED522EE37EF46E557E329D54B01F8
:100480005C0123E33AE845E65EE3C701B60120D507
:100490009B01AC01C501B401F4D32EEB36EF41E66C
:1004A00051E4EED36B017C0120E030E0A9010CD5D2
:1004B00020E030E040E05FE387FDC7C0C701B60140
:1004C000E0D343D46F3F710511F00CF0C2C07093BC
:1004D0006D0060936C0080916C0090916D00992785
:1004E000F6DE412C512C20E8622E2FE3722EC2DD65
:1004F000E0907800F09079008E199F09181619067F
:100500000CF0AEC0B7DD8E199F0904970CF0B0C097
:1005100080917700813009F007C2C49A80917600FB
:100520008823E1F080917700811118C02FB7F894EB
:1005300080917B0090917C00A0917D00B0917E0025
:100540002FBF80936E0090936F00A0937000B093C4
:10055000710081E08093770010927600809177009F
:10056000882329F280917600882309F4C0CF2FB721
:10057000F89460917B0070917C0080917D00909157
:100580007E002FBF1092770010927600C0906E0010
:10059000D0906F00E0907000F09071006C197D09B0
:1005A0008E099F09683E03E070078105910508F0F8
:1005B00025C2FCD36B017C01C0927200D092730003
:1005C000E0927400F09275004092600050926100D9
:1005D0006092620070926300AC019B0179D422EEBC
:1005E00037EF46E557E374D44B015C0123E33AE867
:1005F00045E65EE3C701B6016BD49B01AC01C501C2
:10060000B4013FD32EEB36EF41E651E439D36B0111
:100610007C0120E030E0A90157D420E030E040E048
:100620005FE387FDE0C1C701B6012BD38ED36138EC
:1006300071050CF0DCC170936D0060936C008091CB
:100640006C0090916D0043DE52CFC701B60118D304
:1006500038CF8FEF90E090936D0080936C003BCF8C
:1006600009DDE81AF90A04E0E016F1040CF450CFB1
:1006700080917700882309F4D7C0E8DD85B78D7FA6
:1006800085BF8BB78F7B8BBF82E014DD019709F0AC
:1006900060C0F0DC863512E091074CF440926000B7
:1006A000509261006092620070926300EDCF9C01F5
:1006B000265532402A36310568F420E030E040E427
:1006C0005FE3209360003093610040936200509399
:1006D0006300DACF9C01205C32402A36310568F491
:1006E00080E090E0A0E0BFE3809360009093610021
:1006F000A0936200B0936300C7CF9C012A5233409D
:100700002B36310588F493ECA92E95EFB92E98EA93
:10071000C92E9EE3D92EA0926000B0926100C092D3
:100720006200D0926300B0CF855993408B3691051B
:1007300008F0AACFC12CD12C80E8E82E8EE3F82E49
:10074000C0926000D0926100E0926200F09263007B
:100750009BCF62E370E080E090E04FDD209160008D
:10076000309161004091620050916300609172008D
:10077000709173008091740090917500A9D36B0102
:100780007C01AC019B01A4D322EE37EF46E557E391
:100790009FD34B015C0123E33AE845E65EE3C701E2
:1007A000B60196D39B01AC01C501B4016AD22EEB10
:1007B00036EF41E651E464D26B017C0120E030E089
:1007C000A90182D320E030E040E05FE387FD21C053
:1007D000C701B60156D2B9D26F3F710509F0ECF4EA
:1007E00070936D0060936C0080916C0090916D002F
:1007F0006EDD40DC909379008093780085B782604D
:1008000085BF8BB780648BBF109277001092760003
:100810007FCEC701B60134D2DECF8FEF90E0909348
:100820006D0080936C00E0CF25DCBC01990F880B34
:10083000990B625C7140810991092FE132E040E03F
:1008400050E0C7D12DE332E040E050E0DBD1CA01F7
:10085000B901675C7F4F8F4F9F4F072E000C880BAD
:10086000990BA6D26B017C01C0927200D0927300EA
:10087000E0927400F0927500409260005092610026
:100880006092620070926300AC019B0121D322EE62
:1008900037EF46E557E31CD34B015C0123E33AE80D
:1008A00045E65EE3C701B60113D39B01AC01C50168
:1008B000B401E7D12EEB36EF41E651E4E1D16B0113
:1008C0007C0120E030E0A901FFD220E030E040E0F0
:1008D0005FE387FD19C0C701B601D3D136D26F3FA0
:1008E0007105B1F0ACF080E890E090936D008093DA
:1008F0006C0080916C0090916D00E9DCBBDB909303
:1009000079008093780004CEC701B601B9D1E6CF53
:1009100077FD05C070936D0060936C00EACF109274
:100920006D0010926C00E5CF6091600070916100E5
:100930008091620090916300209172003091730069
:100940004091740050917500EFB7F894E0907B00EF
:10095000F0907C0000917D0010917E00ED82FE827F
:100960000F831887EFBFA0906800B0906900C09017
:100970006A00D0906B00EA18FB080C091D09E98297
:10098000FA820B831C83A4D26B017C0120E030E04F
:10099000A9019AD220E030E040E05FE387FD1FC06C
:1009A000C701B6016ED1D1D1C980DA80EB80FC805D
:1009B000C616D706E806F90608F4B0CDED80FE802D
:1009C0000F811885E0926800F092690000936A0038
:1009D00010936B0088B390E1892788BB9FCDC70136
:1009E000B6014ED1E0CFC701B6014AD11FCE80E893
:1009F00090E090936D0080936C0021CE27DC85B74A
:100A00008D7F85BF8BB78F7B8BBF62E370E080E00B
:100A100090E0F3DB82E04EDB019739F52BDB7C01C4
:100A200081D022E830E040E050E0ECD0CB014FDC58
:100A3000B701FF0C880B990B625C71408109910929
:100A400027EE33E040E050E0C4D02DE332E040E058
:100A500050E0D8D0CA01B9016F5F7F4F8F4F9F4FD1
:100A6000072E000C880B990BD4CF60917200709107
:100A70007300809174009091750067D1CB0127DCE1
:100A800085B7826085BF8BB780648BBF30CD8F9276
:100A90009F92AF92BF92CF92DF92EF92FF92CF934D
:100AA000DF93EC01688179818A819B8161157105F1
:100AB0008105910521F464E279ED8BE597E02DE164
:100AC00033EF41E050E09ED049015A0127EA31E47A
:100AD00040E050E07ED06B017C012CEE34EF4FEF14
:100AE0005FEFC501B40175D0C60ED71EE81EF91E12
:100AF000F7FE06C081E0C81AD108E10880E8F80ACC
:100B0000C882D982EA82FB82C701B6019F77DF9152
:100B1000CF91FF90EF90DF90CF90BF90AF909F90DC
:100B20008F9008958F929F92AF92BF92CF92DF9253
:100B3000EF92FF9260916400709165008091660071
:100B400090916700611571058105910521F464E2BA
:100B500079ED8BE597E02DE133EF41E050E052D0A5
:100B600049015A0127EA31E440E050E032D06B01FC
:100B70007C012CEE34EF4FEF5FEFC501B40129D0BB
:100B8000C60ED71EE81EF91EF7FE06C081E0C81A81
:100B9000D108E10880E8F80AC0926400D0926500AC
:100BA000E0926600F0926700C701B6019F77FF9060
:100BB000EF90DF90CF90BF90AF909F908F9008956F
:100BC0006093640070936500809366009093670063
:100BD0000895EE27FF27AA27BB2708C0A20FB31F3F
:100BE000E41FF51F220F331F441F551F969587954D
:100BF0007795679598F37040A9F7009799F7BD012D
:100C0000CF010895052E97FB16F400940FD057FDE1
:100C100005D014D007FC02D046F408C0509540958A
:100C2000309521953F4F4F4F5F4F08959095809598
:100C3000709561957F4F8F4F9F4F0895A1E21A2EB7
:100C4000AA1BBB1BFD010DC0AA1FBB1FEE1FFF1F70
:100C5000A217B307E407F50720F0A21BB30BE40BC0
:100C6000F50B661F771F881F991F1A9469F7609507
:100C70007095809590959B01AC01BD01CF010895C1
:100C80005058BB27AA270ED0E5C0D6D030F0DBD015
:100C900020F031F49F3F11F41EF4CBC00EF4E09528
:100CA000E7FBC1C0E92FE7D080F3BA1762077307EB
:100CB0008407950718F071F49EF5FFC00EF4E095D7
:100CC0000B2EBA2FA02D0B01B90190010C01CA0106
:100CD000A0011124FF27591B99F0593F50F4503EB1
:100CE00068F11A16F040A22F232F342F4427585FA3
:100CF000F3CF469537952795A795F0405395C9F7BB
:100D00007EF41F16BA0B620B730B840BBAF0915072
:100D1000A1F0FF0FBB1F661F771F881FC2F70EC011
:100D2000BA0F621F731F841F48F4879577956795E4
:100D3000B795F7959E3F08F0B3CF9395880F08F0CD
:100D40009927EE0F97958795089504D06894B1116F
:100D5000B5C0089598D088F09F5790F0B92F992783
:100D6000B751A0F0D1F0660F771F881F991F1AF0B6
:100D7000BA95C9F712C0B13081F09FD0B1E00895A3
:100D80009CC0672F782F8827B85F39F0B93FCCF324
:100D9000869577956795B395D9F73EF490958095AC
:100DA000709561957F4F8F4F9F4F0895E89409C0CC
:100DB00097FB3EF490958095709561957F4F8F4F8E
:100DC0009F4F9923A9F0F92F96E9BB279395F695A4
:100DD000879577956795B795F111F8CFFAF4BB0F22
:100DE00011F460FF1BC06F5F7F4F8F4F9F4F16C086
:100DF000882311F096E911C0772321F09EE8872F10
:100E0000762F05C0662371F096E8862F70E060E0CB
:100E10002AF09A95660F771F881FDAF7880F969544
:100E2000879597F9089597F99F6780E870E060E0EB
:100E300008959FEF80EC089500240A941616170673
:100E400018060906089500240A94121613061406BB
:100E500005060895092E0394000C11F4882352F01E
:100E6000BB0F40F4BF2B11F460FF04C06F5F7F4FD6
:100E70008F4F9F4F089557FD9058440F551F59F0BD
:100E80005F3F71F04795880F97FB991F61F09F3F77
:100E900079F087950895121613061406551FF2CFA0
:100EA0004695F1DF08C0161617061806991FF1CFF0
:100EB00086957105610508940895E894BB27662717
:100EC0007727CB0197F908956ED008F48FEF089536
:100ED0000AD0C0CFB1DF28F0B6DF18F0952309F0B3
:100EE000A2CFA7CFEBCFC7DFA8F39923D9F3552320
:100EF000C9F3950F50E0551FAA27EE27FF27BB2700
:100F000000240894679520F4E20FF31FB41F0A1E13
:100F1000220F331F441FAA1F6695A9F7779530F457
:100F2000F30FB41F0A1E121E08F46395330F441FFB
:100F3000AA1F221F769599F7879520F4B40F0A1EF1
:100F4000121E631F440FAA1F221F331F8695A9F785
:100F5000862F712D602D11249F5750408AF0E1F0AB
:100F600088234AF0EE0FFF1FBB1F661F771F881FE5
:100F700091505040A9F79E3F510570F054CF9ECF3D
:100F80005F3FECF3983EDCF3869577956795B795D0
:100F9000F795E7959F5FC1F7FE2B880F911D9695FA
:100FA000879597F90895990F0008550FAA0BE0E867
:100FB000FEEF16161706E807F907C0F0121613061B
:100FC000E407F50798F0621B730B840B950B39F45B
:100FD0000A2661F0232B242B252B21F408950A26C1
:100FE00009F4A140A6958FEF811D811D0895F89405
:020FF000FFCF31
:080FF2000000803F0100000037
:00000001FF
