:100000001DC085C136C035C034C037C132C031C013
:1000100030C02FC02EC02DC02CC02BC02AC0000065
:100020000000360000000000380002020202020256
:1000300001020408102001020000040011241FBE68
:10004000CFE5D2E0DEBFCDBF10E0A0E6B0E0E2E257
:10005000FFE002C005900D92A436B107D9F720E069
:10006000A4E6B0E001C01D92AF37B207E1F75ED160
:1000700056C7C6CF17B887B187B9369A3699FECF1B
:1000800084B195B10895813021F48AB58F778ABD06
:100090000895823019F48AB58F7DF9CF833021F429
:1000A00080B78F7D80BF0895843019F48CB58F7D23
:1000B0008CBD08951F93CF93DF93162F87FF09C040
:1000C0008F7771F1813071F1823071F1833071F18C
:1000D0008FEF282F30E0F901EA5CFF4F8491F9019E
:1000E000E05DFF4FD491F901E65DFF4FC491CC2351
:1000F00099F08111C8DFEC2FF0E0EE0FFF1FEC5DEF
:10010000FF4FA591B4918FB7111112C0F894EC91E3
:10011000D095DE23DC938FBFDF91CF911F9108959F
:1001200085E0D7CF82E0D5CF84E0D3CF83E0D1CFB5
:10013000F894EC91DE2BEECF3FB7F89480917B00E2
:1001400090917C00A0917D00B0917E0022B708B60E
:1001500001FE05C02F3F19F00196A11DB11D3FBF43
:10016000BA2FA92F982F8827BC01CD01620F711DCE
:10017000811D911D43E0660F771F881F991F4A95C7
:10018000D1F70895CF92DF92EF92FF92CF93DF9352
:100190006B017C01D1DFEB01C114D104E104F10456
:1001A00041F412C081E0C81AD108E108F108C85131
:1001B000DC4FC2DF6C1B7D0B683E734068F3C114DB
:1001C000D104E104F10471F7DF91CF91FF90EF903A
:1001D000DF90CF9008951F93CF93DF93C3E0D0E0DB
:1001E00010E188B3812788BB62E370E080E090E093
:1001F000C9DF88B3812788BB6EE170E080E090E0C2
:10020000C1DF219771F7DF91CF911F910895EF9290
:10021000FF920F931F93CF93DF93E82EF62EC7E044
:10022000D0E0042F10E0B8010C2E02C07595679540
:100230000A94E2F761708E2D3DDF61E08F2D3ADF89
:1002400060E08F2D37DF219770F7DF91CF911F91FD
:100250000F91FF90EF900895CF93C82F60E081E059
:1002600029DF41E160E083E0D2DF4C2F60E083E0F2
:10027000CEDF61E081E0CF911DCF1F920F920FB6CC
:100280000F9211242F933F938F939F93AF93BF931C
:100290008091770090917800A0917900B0917A00D8
:1002A0003091760026E0230F2D3768F129E8230FDF
:1002B0000396A11DB11D2093760080937700909343
:1002C0007800A0937900B0937A0080917B009091A0
:1002D0007C00A0917D00B0917E000196A11DB11D12
:1002E00080937B0090937C00A0937D00B0937E0070
:1002F000BF91AF919F918F913F912F910F900FBE22
:100300000F901F9018950296A11DB11DD4CF1F927A
:100310000F920FB60F9211248F9381E08093720099
:100320008F910F900FBE0F901F901895CF93DF9372
:10033000CDB7DEB728970FB6F894DEBF0FBECDBF9E
:1003400081B781BF8AB582608ABD8AB581608ABD66
:1003500083B7887F836083BF789489B7826089BFC1
:1003600080B7807F80BF80B7806880BF80B780649F
:1003700080BF8CB580648CBD8FEF8DBD80B78760EA
:1003800080BF86B18877866886B9379A85B78260DC
:1003900085BF8BB780648BBF8FB780688FBF87B3F3
:1003A0008B6187BBBA98379A65DE9093750080930E
:1003B0007400BC01990F880B990B625C7140810934
:1003C00091092FE132E040E050E09BD32DE332E091
:1003D00040E050E0AFD3CA01B901675C7F4F8F4F57
:1003E0009F4F7ED46B017C01C0926E00D0926F0053
:1003F000E0927000F0927100AC019B0101D522EEF9
:1004000037EF46E557E3FCD44B015C0123E33AE8C0
:1004100045E65EE3C701B601F3D49B01AC01C5011B
:10042000B401C7D32EEB36EF41E651E4C1D36B01E3
:100430007C0120E030E0A901DFD420E030E040E0A2
:100440005FE387FDFFC0C701B601B3D316D4709335
:100450006900609368006F3F710539F034F08FEFE9
:1004600090E090936900809368008091680090917B
:1004700069009927F1DE4DE3442E42E0542E612CB1
:10048000712CF8DDA0907400B0907500BA82A9823A
:100490008A199B09181619060CF0D8C0EBDD8A19C9
:1004A0009B0904970CF0DCC080917300813009F047
:1004B00044C2C49A809172008823E1F08091730055
:1004C000811118C02FB7F89480917700909178002F
:1004D000A0917900B0917A002FBF80936A00909329
:1004E0006B00A0936C00B0936D0081E0809373006B
:1004F0001092720080917300882309F47EC080916D
:100500007200882309F479C02FB7F89460917700BE
:10051000709178008091790090917A002FBF1092AD
:1005200073001092720000916A0010916B0020918C
:100530006C0030916D00601B710B820B930B683E59
:1005400003E070078105910508F06DC2603912E083
:1005500071078105910508F055C2C0D360936E0004
:1005600070936F00809370009093710080E090E032
:10057000A0E8BFE38093600090936100A0936200C5
:10058000B0936300C0906E00D0906F00E090700058
:10059000F0907100A7019601C701B60131D422EE97
:1005A00037EF46E557E32CD44B015C0123E33AE8EF
:1005B00045E65EE3C701B60123D49B01AC01C5014A
:1005C000B401F7D22EEB36EF41E651E4F1D26B01E4
:1005D0007C0120E030E0A9010FD420E030E040E0D1
:1005E0005FE387FD1CC2C701B601E3D246D3709317
:1005F000690060936800CB012FDE8091730088232F
:1006000009F43FCF2FB7F89480917700909178004C
:10061000A0917900B0917A002FBF40916A0050916B
:100620006B0060916C0070916D00841B950BA60BA4
:10063000B70B883B9B40A105B10508F422CF10926F
:1006400073001FCFC701B601B3D200CF13DDC9803D
:10065000DA80C81AD90A8601043011050CF424CFB7
:1006600080917300882309F4E4C0B5DD85B78D7FE0
:1006700085BF8BB78F7B8BBF02E310E03CE2E32E9C
:1006800030E0F32EE8E3F0E08491F801C490F70144
:10069000D490DD2009F462C08111F5DCED2DF0E08D
:1006A000EE0FFF1FE25EFF4FA591B4918C91C8221F
:1006B00009F454C0DFDC8635F2E09F077CF4A12CFE
:1006C000B12C90E8C92E9FE3D92EA0926000B09281
:1006D0006100C0926200D0926300D4CF9C01265585
:1006E00032402A36310568F420E030E040E45FE330
:1006F0002093600030936100409362005093630048
:10070000C1CF9C01205C32402A36310568F480E07C
:1007100090E0A0E0BFE38093600090936100A0931D
:100720006200B0936300AECF9C012A5233402B3657
:10073000310548F483ECA82E85EFB82E88EAC82E40
:100740008EE3D82EC2CF855993408B36910508F0A1
:1007500099CF20E030E040E85EE3CACF62E370E08A
:1007600080E090E00FDD20916000309161004091C9
:1007700062005091630060916E0070916F008091F3
:100780007000909171003CD36B017C01AC019B0126
:1007900037D322EE37EF46E557E332D34B015C0106
:1007A00023E33AE845E65EE3C701B60129D39B019E
:1007B000AC01C501B401FDD12EEB36EF41E651E4A9
:1007C000F7D16B017C0120E030E0A90115D320E0D6
:1007D00030E040E05FE387FD21C0C701B601E9D109
:1007E0004CD26F3F710509F0ECF47093690060938F
:1007F000680080916800909169002EDD3BDC909349
:1008000075008093740085B7826085BF8BB7806464
:100810008BBF109273001092720046CEC701B601D2
:10082000C7D1DECF8FEF90E090936900809368008E
:10083000E0CF20DCBC01990F880B990B625C714002
:10084000810991092FE132E040E050E05AD1A30143
:10085000920170D1CA01B901675C7F4F8F4F9F4FE2
:10086000072E000C880B990B3BD26B017C01C092C8
:100870006E00D0926F00E0927000F092710080E004
:1008800090E0A0E8BFE38093600090936100A093A4
:100890006200B0936300A7019601C701B601B0D210
:1008A00022EE37EF46E557E3ABD24B015C0123E381
:1008B0003AE845E65EE3C701B601A2D29B01AC016E
:1008C000C501B40176D12EEB36EF41E651E470D18B
:1008D0006B017C0120E030E0A9018ED220E030E005
:1008E00040E05FE387FD19C0C701B60162D1C5D101
:1008F0006F3F7105B1F0ACF080E890E09093690033
:10090000809368008091680090916900A5DCB2DB5B
:100910009093750080937400C7CDC701B60148D18C
:10092000E6CF77FD05C07093690060936800EACF59
:100930001092690010926800E5CF6091600070919C
:100940006100809162009091630020916E0030916F
:100950006F004091700050917100EFB7F894A09033
:100960007700B0907800C0907900D0907A00AD8286
:10097000BE82CF82D886EFBFC0906400D090650061
:10098000E0906600F090670056016701ED80FE8000
:100990000F811885EA18FB080C091D09E982FA8203
:1009A0000B831C832DD26B017C0120E030E0A90178
:1009B00023D220E030E040E05FE387FD1FC0C701A5
:1009C000B601F7D05AD1C980DA80EB80FC80C61618
:1009D000D706E806F90608F46DCDED80FE800F819C
:1009E0001885E0926400F092650000936600109311
:1009F000670088B390E1892788BB5CCDC701B60149
:100A0000D7D0E0CF20E030EC43E254E420936E00F6
:100A100030936F004093700050937100A7CDC701D1
:100A2000B601C6D0E3CDD7DB62E370E080E090E0B2
:100A3000A9DB80917200811157C01A8219828981C5
:100A40009A810ADC17DBBC01990F880B990B625C59
:100A500071408109910924E833E040E050E051D031
:100A6000A301920167D0CA01B9016C597F4F8F4F22
:100A70009F4F88DB80917200811109C009811A8122
:100A8000075E1F4F1A8309830D371105C1F604E66F
:100A900010E01A83098389819A81DEDBEBDABC01DD
:100AA000990F880B990B625C71408109910924E8C8
:100AB00033E040E050E025D0A30192013BD0CA01D1
:100AC000B9016C597F4F8F4F9F4F5CDB8091720053
:100AD0008111AFCF09811A81095111091A83098344
:100AE000073E1F4FC1F6A5CF10927200809168009B
:100AF00090916900B1DB64E670E080E090E042DB59
:100B00007CCDEE27FF27AA27BB2708C0A20FB31F63
:100B1000E41FF51F220F331F441F551F969587951D
:100B20007795679598F37040A9F7009799F7BD01FD
:100B3000CF010895052E97FB16F400940FD057FDB2
:100B400005D014D007FC02D046F408C0509540955B
:100B5000309521953F4F4F4F5F4F08959095809569
:100B6000709561957F4F8F4F9F4F0895A1E21A2E88
:100B7000AA1BBB1BFD010DC0AA1FBB1FEE1FFF1F41
:100B8000A217B307E407F50720F0A21BB30BE40B91
:100B9000F50B661F771F881F991F1A9469F76095D8
:100BA0007095809590959B01AC01BD01CF01089592
:100BB0005058BB27AA270ED0E5C0D6D030F0DBD0E6
:100BC00020F031F49F3F11F41EF4CBC00EF4E095F9
:100BD000E7FBC1C0E92FE7D080F3BA1762077307BC
:100BE0008407950718F071F49EF5FFC00EF4E095A8
:100BF0000B2EBA2FA02D0B01B90190010C01CA01D7
:100C0000A0011124FF27591B99F0593F50F4503E81
:100C100068F11A16F040A22F232F342F4427585F73
:100C2000F3CF469537952795A795F0405395C9F78B
:100C30007EF41F16BA0B620B730B840BBAF0915043
:100C4000A1F0FF0FBB1F661F771F881FC2F70EC0E2
:100C5000BA0F621F731F841F48F4879577956795B5
:100C6000B795F7959E3F08F0B3CF9395880F08F09E
:100C70009927EE0F97958795089504D06894B11140
:100C8000B5C0089598D088F09F5790F0B92F992754
:100C9000B751A0F0D1F0660F771F881F991F1AF087
:100CA000BA95C9F712C0B13081F09FD0B1E0089574
:100CB0009CC0672F782F8827B85F39F0B93FCCF3F5
:100CC000869577956795B395D9F73EF4909580957D
:100CD000709561957F4F8F4F9F4F0895E89409C09D
:100CE00097FB3EF490958095709561957F4F8F4F5F
:100CF0009F4F9923A9F0F92F96E9BB279395F69575
:100D0000879577956795B795F111F8CFFAF4BB0FF2
:100D100011F460FF1BC06F5F7F4F8F4F9F4F16C056
:100D2000882311F096E911C0772321F09EE8872FE0
:100D3000762F05C0662371F096E8862F70E060E09C
:100D40002AF09A95660F771F881FDAF7880F969515
:100D5000879597F9089597F99F6780E870E060E0BC
:100D600008959FEF80EC089500240A941616170644
:100D700018060906089500240A941216130614068C
:100D800005060895092E0394000C11F4882352F0EF
:100D9000BB0F40F4BF2B11F460FF04C06F5F7F4FA7
:100DA0008F4F9F4F089557FD9058440F551F59F08E
:100DB0005F3F71F04795880F97FB991F61F09F3F48
:100DC00079F087950895121613061406551FF2CF71
:100DD0004695F1DF08C0161617061806991FF1CFC1
:100DE00086957105610508940895E894BB276627E8
:100DF0007727CB0197F908956ED008F48FEF089507
:100E00000AD0C0CFB1DF28F0B6DF18F0952309F083
:100E1000A2CFA7CFEBCFC7DFA8F39923D9F35523F0
:100E2000C9F3950F50E0551FAA27EE27FF27BB27D0
:100E300000240894679520F4E20FF31FB41F0A1EE4
:100E4000220F331F441FAA1F6695A9F7779530F428
:100E5000F30FB41F0A1E121E08F46395330F441FCC
:100E6000AA1F221F769599F7879520F4B40F0A1EC2
:100E7000121E631F440FAA1F221F331F8695A9F756
:100E8000862F712D602D11249F5750408AF0E1F07C
:100E900088234AF0EE0FFF1FBB1F661F771F881FB6
:100EA00091505040A9F79E3F510570F054CF9ECF0E
:100EB0005F3FECF3983EDCF3869577956795B795A1
:100EC000F795E7959F5FC1F7FE2B880F911D9695CB
:100ED000879597F90895990F0008550FAA0BE0E838
:100EE000FEEF16161706E807F907C0F012161306EC
:100EF000E407F50798F0621B730B840B950B39F42C
:100F00000A2661F0232B242B252B21F408950A2691
:100F100009F4A140A6958FEF811D811D0895F894D5
:020F2000FFCF01
:040F22000000803F0C
:00000001FF
