:100000001DC0C0C136C035C034C072C132C031C09D
:1000100030C02FC02EC02DC02CC02BC02AC0000065
:100020000000380000000000360002020202020256
:1000300001020408102001020000040011241FBE68
:10004000CFE5D2E0DEBFCDBF10E0A0E6B0E0ECE14E
:10005000F0E102C005900D92A836B107D9F720E073
:10006000A8E6B0E001C01D92A338B207E1F799D12C
:10007000D3C7C6CF17B887B187B9369A3699FECF9E
:1000800084B195B10895813021F48AB58F778ABD06
:100090000895823019F48AB58F7DF9CF833021F429
:1000A00080B78F7D80BF0895843019F48CB58F7D23
:1000B0008CBD0895CF93DF9387FF09C08F7751F1EF
:1000C000813051F1823051F1833051F18FEF282F7F
:1000D00030E0F901EA5CFF4F8491F901E05DFF4FE8
:1000E000D491F901E65DFF4FC491CC23D9F0811181
:1000F000CADFEC2FF0E0EE0FFF1FEC5DFF4FA59184
:10010000B491EC91ED2381E090E009F480E0DF917F
:10011000CF91089585E0DBCF82E0D9CF84E0D7CFBF
:1001200083E0D5CF80E090E0F2CF1F93CF93DF93B1
:10013000162F87FF09C08F7771F1813071F18230FE
:1001400071F1833071F18FEF282F30E0F901EA5C13
:10015000FF4F8491F901E05DFF4FD491F901E65D15
:10016000FF4FC491CC2399F081118DDFEC2FF0E08B
:10017000EE0FFF1FE25EFF4FA591B4918FB71111F3
:1001800012C0F894EC91D095DE23DC938FBFDF9101
:10019000CF911F91089585E0D7CF82E0D5CF84E03D
:1001A000D3CF83E0D1CFF894EC91DE2BEECF3FB7E5
:1001B000F89480917F0090918000A0918100B0918F
:1001C000820022B708B601FE05C02F3F19F0019644
:1001D000A11DB11D3FBFBA2FA92F982F8827BC01A1
:1001E000CD01620F711D811D911D43E0660F771FC8
:1001F000881F991F4A95D1F70895CF92DF92EF9209
:10020000FF92CF93DF936B017C01D1DFEB01C1142F
:10021000D104E104F10441F412C081E0C81AD1080C
:10022000E108F108C851DC4FC2DF6C1B7D0B683E52
:10023000734068F3C114D104E104F10471F7DF9154
:10024000CF91FF90EF90DF90CF9008951F93CF93C1
:10025000DF93C3E0D0E010E188B3812788BB62E37D
:1002600070E080E090E0C9DF88B3812788BB6EE151
:1002700070E080E090E0C1DF219771F7DF91CF91CE
:100280001F910895EF92FF920F931F93CF93DF93E7
:10029000E82EF62EC7E0D0E0042F10E0B8010C2EB7
:1002A00002C0759567950A94E2F761708E2D3DDF67
:1002B00061E08F2D3ADF60E08F2D37DF219770F7F7
:1002C000DF91CF911F910F91FF90EF900895CF9301
:1002D000C82F60E081E029DF41E160E083E0D2DF08
:1002E0004C2F60E083E0CEDF61E081E0CF911DCF55
:1002F0001F920F920FB60F9211242F933F938F935B
:100300009F93AF93BF9380917B0090917C00A091CD
:100310007D00B0917E0030917A0026E0230F2D37CA
:1003200068F129E8230F0396A11DB11D20937A00DF
:1003300080937B0090937C00A0937D00B0937E001F
:1003400080917F0090918000A0918100B091820007
:100350000196A11DB11D80937F0090938000A09312
:100360008100B0938200BF91AF919F918F913F9197
:100370002F910F900FBE0F901F9018950296A11D00
:10038000B11DD4CF1F920F920FB60F9211248F93ED
:1003900081E0809376008F910F900FBE0F901F9099
:1003A0001895CF93DF93CDB7DEB728970FB6F894A3
:1003B000DEBF0FBECDBF81B781BF8AB582608ABD67
:1003C0008AB581608ABD83B7887F836083BF789454
:1003D00089B7826089BF80B7807F80BF80B780681F
:1003E00080BF80B7806480BF8CB580648CBD8FEF88
:1003F0008DBD80B7876080BF86B18877866886B9F3
:10040000379A85B7826085BF8BB780648BBF8FB703
:1004100080688FBF87B38B6187BBBA98379A2ADE13
:100420009093790080937800BC01990F880B990B09
:10043000625C7140810991092FE132E040E050E0B7
:10044000DDD32DE332E040E050E0F1D3CA01B90141
:10045000675C7F4F8F4F9F4FC0D46B017C01C09270
:100460007200D0927300E0927400F0927500AC01BB
:100470009B0143D522EE37EF46E557E33ED54B01CE
:100480005C0123E33AE845E65EE3C701B60135D5F2
:100490009B01AC01C501B40109D42EEB36EF41E656
:1004A00051E403D46B017C0120E030E0A90121D5A7
:1004B00020E030E040E05FE387FDBBC0C701B6014C
:1004C000F5D358D46F3F710511F00CF0B6C070939E
:1004D0006D0060936C0080916C0090916D00992785
:1004E000F6DE412C512C20E8622E2FE3722EC2DD65
:1004F000E0907800F09079008E199F09181619067F
:100500000CF0A2C0B7DD8E199F0904970CF0A4C0AF
:1005100080917700813009F0FBC1C49A8091760008
:100520008823E1F080917700811118C02FB7F894EB
:1005300080917B0090917C00A0917D00B0917E0025
:100540002FBF80936E0090936F00A0937000B093C4
:10055000710081E08093770010927600809177009F
:10056000882329F280917600882309F4C0CF2FB721
:10057000F89460917B0070917C0080917D00909157
:100580007E002FBFC0906E00D0906F00E090700092
:10059000F09071006C197D098E099F091CD46B01C4
:1005A0007C01C0927200D0927300E0927400F092CD
:1005B000750020E030E04AE754E49BD418160CF0B4
:1005C00027C244DE85B78D7F85BF8BB78F7B8BBFFE
:1005D00062E370E080E090E010DE82E06BDD019786
:1005E00009F0F5C147DD7C01B2D222E830E040E0FD
:1005F00050E01DD3CB016BDEB701FF0C880B990BCC
:10060000625C71408109910927EE33E040E050E0DF
:10061000F5D22DE332E040E050E009D3CA01B90140
:100620006F5F7F4F8F4F9F4F072E000C880B990BEA
:10063000D3CFC701B60139D344CF8FEF90E0909369
:100640006D0080936C0047CF15DDE81AF90A04E0CD
:10065000E016F1040CF45CCF80917700882309F454
:10066000D7C0F4DD85B78D7F85BF8BB78F7B8BBF00
:1006700082E020DD019709F060C0FCDC863512E0E5
:1006800091074CF4409260005092610060926200C9
:1006900070926300EDCF9C01265532402A36310519
:1006A00068F420E030E040E45FE3209360003093A2
:1006B00061004093620050936300DACF9C01205C9C
:1006C00032402A36310568F480E090E0A0E0BFE3D4
:1006D0008093600090936100A0936200B0936300E8
:1006E000C7CF9C012A5233402B36310588F493EC56
:1006F000A92E95EFB92E98EAC92E9EE3D92EA09285
:100700006000B0926100C0926200D0926300B0CFEE
:10071000855993408B36910508F0AACFC12CD12C76
:1007200080E8E82E8EE3F82EC0926000D09261003F
:10073000E0926200F09263009BCF62E370E080E0A1
:1007400090E05BDD2091600030916100409162009B
:1007500050916300609172007091730080917400F9
:1007600090917500CAD36B017C01AC019B01C5D38C
:1007700022EE37EF46E557E3C0D34B015C0123E39C
:100780003AE845E65EE3C701B601B7D39B01AC0189
:10079000C501B4018BD22EEB36EF41E651E485D290
:1007A0006B017C0120E030E0A901A3D320E030E020
:1007B00040E05FE387FD21C0C701B60177D2DAD2FE
:1007C0006F3F710509F0ECF470936D0060936C005D
:1007D00080916C0090916D007ADD4CDC90937900F3
:1007E0008093780085B7826085BF8BB780648BBFAC
:1007F00010927700109276008BCEC701B60155D2C9
:10080000DECF8FEF90E090936D0080936C00E0CF8F
:1008100031DCBC01990F880B990B625C7140810936
:1008200091092FE132E040E050E0E8D12DE332E0E1
:1008300040E050E0FCD1CA01B901675C7F4F8F4FA7
:100840009F4F072E000C880B990BC7D26B017C01C0
:10085000C0927200D0927300E0927400F092750022
:10086000409260005092610060926200709263005A
:10087000AC019B0142D322EE37EF46E557E33DD36F
:100880004B015C0123E33AE845E65EE3C701B601AC
:1008900034D39B01AC01C501B40108D22EEB36EF75
:1008A00041E651E402D26B017C0120E030E0A90175
:1008B00020D320E030E040E05FE387FD19C0C701AE
:1008C000B601F4D157D26F3F7105B1F0ACF080E8BA
:1008D00090E090936D0080936C0080916C009091FB
:1008E0006D00F5DCC7DB909379008093780010CE23
:1008F000C701B601DAD1E6CF77FD05C070936D0070
:1009000060936C00EACF10926D0010926C00E5CFFE
:10091000609160007091610080916200909163002D
:1009200020917200309173004091740050917500D5
:10093000EFB7F894E0907B00F0907C0000917D0090
:1009400010917E00ED82FE820F831887EFBFA0908A
:100950006800B0906900C0906A00D0906B00EA18FF
:10096000FB080C091D09E982FA820B831C83C5D29E
:100970006B017C0120E030E0A901BBD220E030E037
:1009800040E05FE387FD1FC0C701B6018FD1F2D100
:10099000C980DA80EB80FC80C616D706E806F90627
:1009A00008F4BCCDED80FE800F811885E0926800D0
:1009B000F092690000936A0010936B0088B390E195
:1009C000892788BBABCDC701B6016FD1E0CF81E0ED
:1009D000809377009FB7F89440917B0050917C0002
:1009E00060917D0070917E009FBF40936E00509398
:1009F0006F00609370007093710080937700109285
:100A0000760085B7826085BF8BB780648BBF6FCD62
:100A100040926000509261006092620070926300A8
:100A2000A7019601C701B60168D222EE37EF46E56D
:100A300057E363D24B015C0123E33AE845E65EE30A
:100A4000C701B6015AD29B01AC01C501B4012ED138
:100A50002EEB36EF41E651E428D16B017C0120E01A
:100A600030E0A90146D220E030E040E05FE387FDBE
:100A700018C0C701B6011AD17DD1CB0181589109A7
:100A80008E37910590F070936D0060936C008091AB
:100A90006C0090916D001BDC109277001092760034
:100AA00026CDC701B60101D1E7CF80E890E0909351
:100AB0006D0080936C00EBCF8F929F92AF92BF92AC
:100AC000CF92DF92EF92FF92CF93DF93EC01688198
:100AD00079818A819B81611571058105910521F4D8
:100AE00064E279ED8BE597E02DE133EF41E050E0F2
:100AF0009ED049015A0127EA31E440E050E07ED01F
:100B00006B017C012CEE34EF4FEF5FEFC501B401B8
:100B100075D0C60ED71EE81EF91EF7FE06C081E08E
:100B2000C81AD108E10880E8F80AC882D982EA82A6
:100B3000FB82C701B6019F77DF91CF91FF90EF90C5
:100B4000DF90CF90BF90AF909F908F9008958F923D
:100B50009F92AF92BF92CF92DF92EF92FF926091FD
:100B60006400709165008091660090916700611546
:100B700071058105910521F464E279ED8BE597E03B
:100B80002DE133EF41E050E052D049015A0127EA0C
:100B900031E440E050E032D06B017C012CEE34EFC8
:100BA0004FEF5FEFC501B40129D0C60ED71EE81E76
:100BB000F91EF7FE06C081E0C81AD108E10880E8F6
:100BC000F80AC0926400D0926500E0926600F0924C
:100BD0006700C701B6019F77FF90EF90DF90CF903D
:100BE000BF90AF909F908F90089560936400709332
:100BF000650080936600909367000895EE27FF27B5
:100C0000AA27BB2708C0A20FB31FE41FF51F220F9E
:100C1000331F441F551F969587957795679598F3D1
:100C20007040A9F7009799F7BD01CF010895052EEF
:100C300097FB16F400940FD057FD05D014D007FC95
:100C400002D046F408C050954095309521953F4F0D
:100C50004F4F5F4F089590958095709561957F4FA8
:100C60008F4F9F4F0895A1E21A2EAA1BBB1BFD01B7
:100C70000DC0AA1FBB1FEE1FFF1FA217B307E4077B
:100C8000F50720F0A21BB30BE40BF50B661F771FD3
:100C9000881F991F1A9469F76095709580959095B3
:100CA0009B01AC01BD01CF0108955058BB27AA2775
:100CB0000ED0E5C0D6D030F0DBD020F031F49F3F2D
:100CC00011F41EF4CBC00EF4E095E7FBC1C0E92F90
:100CD000E7D080F3BA17620773078407950718F007
:100CE00071F49EF5FFC00EF4E0950B2EBA2FA02DE7
:100CF0000B01B90190010C01CA01A0011124FF27C9
:100D0000591B99F0593F50F4503E68F11A16F040C3
:100D1000A22F232F342F4427585FF3CF46953795C2
:100D20002795A795F0405395C9F77EF41F16BA0B87
:100D3000620B730B840BBAF09150A1F0FF0FBB1F35
:100D4000661F771F881FC2F70EC0BA0F621F731F7E
:100D5000841F48F4879577956795B795F7959E3FDB
:100D600008F0B3CF9395880F08F09927EE0F979569
:100D70008795089504D06894B111B5C0089598D0AE
:100D800088F09F5790F0B92F9927B751A0F0D1F074
:100D9000660F771F881F991F1AF0BA95C9F712C0FE
:100DA000B13081F09FD0B1E008959CC0672F782FBB
:100DB0008827B85F39F0B93FCCF38695779567956A
:100DC000B395D9F73EF490958095709561957F4FD6
:100DD0008F4F9F4F0895E89409C097FB3EF490957C
:100DE0008095709561957F4F8F4F9F4F9923A9F004
:100DF000F92F96E9BB279395F69587957795679593
:100E0000B795F111F8CFFAF4BB0F11F460FF1BC0D6
:100E10006F5F7F4F8F4F9F4F16C0882311F096E969
:100E200011C0772321F09EE8872F762F05C0662317
:100E300071F096E8862F70E060E02AF09A95660FD0
:100E4000771F881FDAF7880F9695879597F9089589
:100E500097F99F6780E870E060E008959FEF80EC6D
:100E6000089500240A941616170618060906089510
:100E700000240A9412161306140605060895092E76
:100E80000394000C11F4882352F0BB0F40F4BF2BE5
:100E900011F460FF04C06F5F7F4F8F4F9F4F089525
:100EA00057FD9058440F551F59F05F3F71F047951B
:100EB000880F97FB991F61F09F3F79F08795089500
:100EC000121613061406551FF2CF4695F1DF08C01F
:100ED000161617061806991FF1CF8695710561053C
:100EE00008940895E894BB2766277727CB0197F9E4
:100EF00008956ED008F48FEF08950AD0C0CFB1DF07
:100F000028F0B6DF18F0952309F0A2CFA7CFEBCFDA
:100F1000C7DFA8F39923D9F35523C9F3950F50E000
:100F2000551FAA27EE27FF27BB27002408946795A3
:100F300020F4E20FF31FB41F0A1E220F331F441FB9
:100F4000AA1F6695A9F7779530F4F30FB41F0A1E10
:100F5000121E08F46395330F441FAA1F221F7695B3
:100F600099F7879520F4B40F0A1E121E631F440FD1
:100F7000AA1F221F331F8695A9F7862F712D602D7A
:100F800011249F5750408AF0E1F088234AF0EE0F79
:100F9000FF1FBB1F661F771F881F91505040A9F786
:100FA0009E3F510570F054CF9ECF5F3FECF3983ECB
:100FB000DCF3869577956795B795F795E7959F5FED
:100FC000C1F7FE2B880F911D9695879597F9089587
:100FD000990F0008550FAA0BE0E8FEEF161617064A
:100FE000E807F907C0F012161306E407F50798F0B2
:100FF000621B730B840B950B39F40A2661F0232BCB
:10100000242B252B21F408950A2609F4A140A69546
:0C1010008FEF811D811D0895F894FFCF23
:08101C000000803F010000000C
:00000001FF
