:100000001DC092C136C035C034C044C132C031C0F9
:1000100030C02FC02EC02DC02CC02BC02AC0000065
:100020000000360000000000380002020202020256
:1000300001020408102001020000040011241FBE68
:10004000CFE5D2E0DEBFCDBF10E0A0E6B0E0E8E64D
:10005000F0E102C005900D92A836B107D9F720E073
:10006000A8E6B0E001C01D92A338B207E1F76BD15A
:10007000F9C7C6CF17B887B187B9369A3699FECF78
:1000800084B195B10895813021F48AB58F778ABD06
:100090000895823019F48AB58F7DF9CF833021F429
:1000A00080B78F7D80BF0895843019F48CB58F7D23
:1000B0008CBD08951F93CF93DF93162F87FF09C040
:1000C0008F7771F1813071F1823071F1833071F18C
:1000D0008FEF282F30E0F901EA5CFF4F8491F9019E
:1000E000E05DFF4FD491F901E65DFF4FC491CC2351
:1000F00099F08111C8DFEC2FF0E0EE0FFF1FEC5DEF
:10010000FF4FA591B4918FB7111112C0F894EC91E3
:10011000D095DE23DC938FBFDF91CF911F9108959F
:1001200085E0D7CF82E0D5CF84E0D3CF83E0D1CFB5
:10013000F894EC91DE2BEECF3FB7F89480917F00DE
:1001400090918000A0918100B091820022B708B602
:1001500001FE05C02F3F19F00196A11DB11D3FBF43
:10016000BA2FA92F982F8827BC01CD01620F711DCE
:10017000811D911D43E0660F771F881F991F4A95C7
:10018000D1F70895CF92DF92EF92FF92CF93DF9352
:100190006B017C01D1DFEB01CFDF6C1B7D0B683E77
:1001A0007340A0F0C114D104E104F10439F4DF91EB
:1001B000CF91FF90EF90DF90CF90089581E0C81A23
:1001C000D108E108F108C851DC4FE6CFC114D104D1
:1001D000E104F10409F7EBCF1F93CF93DF93C3E062
:1001E000D0E010E188B3812788BB62E370E080E053
:1001F00090E0C8DF88B3812788BB6EE170E080E0C3
:1002000090E0C0DF219771F7DF91CF911F910895A2
:100210002FB7F89460917B0070917C0080917D00F5
:1002200090917E002FBF0895EF92FF920F931F933E
:10023000CF93DF93E82EF62EC7E0D0E0042F10E036
:10024000B8010C2E02C0759567950A94E2F76170AB
:100250008E2D30DF61E08F2D2DDF60E08F2D2ADFC6
:10026000219770F7DF91CF911F910F91FF90EF9041
:100270000895CF93C82F60E081E01CDF41E160E08A
:1002800083E0D2DF4C2F60E083E0CEDF61E081E0ED
:10029000CF9110CF1F920F920FB60F9211242F9370
:1002A0003F938F939F93AF93BF9380917B009091E7
:1002B0007C00A0917D00B0917E0030917A0026E014
:1002C000230F2D3768F129E8230F0396A11DB11DD7
:1002D00020937A0080937B0090937C00A0937D0014
:1002E000B0937E0080917F0090918000A09181006A
:1002F000B09182000196A11DB11D80937F00909363
:100300008000A0938100B0938200BF91AF919F9134
:100310008F913F912F910F900FBE0F901F901895C6
:100320000296A11DB11DD4CF1F920F920FB60F924E
:1003300011248F9381E0809376008F910F900FBEF0
:100340000F901F901895CF93DF9300D000D0CDB7BA
:10035000DEB781B781BF8AB582608ABD8AB5816008
:100360008ABD83B7887F836083BF789489B78260B2
:1003700089BF80B7807F80BF80B7806880BF80B72B
:10038000806480BF8CB580648CBD8FEF8DBD80B7DD
:10039000876080BF86B18877866886B9379A85B7C7
:1003A000826085BF8BB780648BBF8FB780688FBF3B
:1003B00087B38B6187BBBA98379A5CDE90937900DC
:1003C00080937800BC01990F880B990B625C714097
:1003D000810991092FE132E040E050E035D42DE36E
:1003E00032E040E050E049D4CA01B901675C7F4F78
:1003F0008F4F9F4F18D56B017C01C0927200D09235
:100400007300E0927400F0927500AC019B019BD5E3
:1004100022EE37EF46E557E396D54B015C0123E327
:100420003AE845E65EE3C701B6018DD59B01AC0114
:10043000C501B40161D42EEB36EF41E651E45BD443
:100440006B017C0120E030E0A90179D520E030E0AB
:1004500040E05FE387FDD8C0C701B6014DD4B0D4FA
:100460006F3F710511F00CF0D3C070936D00609375
:100470006C0080916C0090916D009927FADEFADD96
:1004800020917800309179003A832983821B930B65
:10049000181619060CF0C3C0EDDD49815A81841B82
:1004A000950B04970CF0C3C080917700813009F060
:1004B0001DC2C49A80917600882391F080917700C4
:1004C00081110EC0A5DE60936E0070936F00809363
:1004D00070009093710081E0809377001092760015
:1004E00080917700882309F474C080917600882376
:1004F00009F46FC08DDE10927700109276000091A3
:100500006E0010916F002091700030917100601B9F
:10051000710B820B930B683E33E0730781059105E5
:1005200008F04AC2603942E074078105910508F07D
:1005300032C277D46093720070937300809374001A
:100540009093750080E090E0A0E8BFE380936000A6
:1005500090936100A0936200B0936300C09072001A
:10056000D0907300E0907400F0907500A7019601A0
:10057000C701B601E8D422EE37EF46E557E3E3D4EE
:100580004B015C0123E33AE845E65EE3C701B601AF
:10059000DAD49B01AC01C501B401AED32EEB36EF2A
:1005A00041E651E4A8D36B017C0120E030E0A901D1
:1005B000C6D420E030E040E05FE387FDF9C1C70129
:1005C000B6019AD3FDD370936D0060936C00CB019C
:1005D00050DE80917700882309F451CF19DE009115
:1005E0006E0010916F002091700030917100601BBF
:1005F000710B820B930B683B7B408105910508F4DE
:100600003ECF109277003BCFC701B60174D327CFFE
:100610008FEF90E090936D0080936C002ACF2ADDDD
:10062000A981BA81A81BB90B14970CF43DCF809116
:100630007700882309F4D4C0CFDD85B78D7F85BFCF
:100640008BB78F7B8BBF02E310E03CE2E32E30E000
:10065000F32EE8E3F0E08491F801C490F701D49020
:10066000DD2009F452C081110EDDED2DF0E0EE0F1A
:10067000FF1FE25EFF4FA591B4918C91C82209F44F
:1006800044C0F8DC20E030E040E85FE38635F2E08B
:100690009F07ECF09C01265532402A36310568F45C
:1006A00080E090E0A0E4BFE380936000909361005D
:1006B000A0936200B0936300CCCF9C01205C3240D9
:1006C0002A36310568F420E030E040E05FE3209313
:1006D0006000309361004093620050936300B9CF93
:1006E0009C012A5233402B36310528F483EC95EFD8
:1006F000A8EABEE3D9CF8559934020E030E040E836
:100700005EE38B36910518F3A4CF62E370E080E0DE
:1007100090E038DD209160003091610040916200EE
:100720005091630060917200709173008091740029
:100730009091750008D46B017C01AC019B0103D43E
:1007400022EE37EF46E557E3FED34B015C0123E38E
:100750003AE845E65EE3C701B601F5D39B01AC017B
:10076000C501B401C9D22EEB36EF41E651E4C3D244
:100770006B017C0120E030E0A901E1D320E030E012
:1007800040E05FE387FD21C0C701B601B5D218D3B1
:100790006F3F710509F0ECF470936D0060936C008D
:1007A00080916C0090916D0064DD64DC9093790021
:1007B0008093780085B7826085BF8BB780648BBFDC
:1007C00010927700109276006FCEC701B60193D2D7
:1007D000DECF8FEF90E090936D0080936C00E0CFC0
:1007E00049DCBC01990F880B990B625C714081094F
:1007F00091092FE132E040E050E026D22DE332E0D3
:1008000040E050E03AD2CA01B901675C7F4F8F4F98
:100810009F4F072E000C880B990B05D36B017C01B1
:10082000C0927200D0927300E0927400F092750052
:1008300080E090E0A0E8BFE38093600090936100C7
:10084000A0936200B0936300A7019601C701B601AF
:100850007AD322EE37EF46E557E375D34B015C01BF
:1008600023E33AE845E65EE3C701B6016CD39B019A
:10087000AC01C501B40140D22EEB36EF41E651E4A4
:100880003AD26B017C0120E030E0A90158D320E08E
:1008900030E040E05FE387FD19C0C701B6012CD20C
:1008A0008FD26F3F7105B1F0ACF080E890E090938B
:1008B0006D0080936C0080916C0090916D00D9DC8C
:1008C000D9DB9093790080937800EECDC701B60113
:1008D00012D2E6CF77FD05C070936D0060936C0077
:1008E000EACF10926D0010926C00E5CF809060000E
:1008F00090906100A0906200B09063004090720000
:1009000050907300609074007090750081DC6B01F2
:100910007C018091680090916900A0916A00B0917B
:100920006B00A7019601281B390B4A0B5B0B29832F
:100930003A834B835C83A3019201C501B40103D3C5
:100940004B015C0120E030E0A901F9D220E030E069
:1009500040E05FE387FD1BC0C501B401CDD130D2BB
:1009600029813A814B815C8126173707480759074F
:1009700008F4A0CDC0926800D0926900E0926A00AD
:10098000F0926B0088B390E1892788BB93CDC501B5
:10099000B401B1D1E4CF80E090ECA3E2B4E4809361
:1009A000720090937300A0937400B0937500CACD49
:1009B000C701B601A0D106CE0FDC5CDBBC01990FEC
:1009C000880B990B625C7140810991092CEA34EF24
:1009D0004FEF5FEF39D12DE332E040E050E04DD1F1
:1009E00069017A019BE7C91694EFD9069FEFE906E2
:1009F000F9060CF46EC0D1D0A70196012A57344FE6
:100A00004F4F5F4F3AD16B017C01A2E3CA0ED11C5C
:100A1000E11CF11C62E370E080E090E0B3DB812C2C
:100A2000912C54010D2C000CEE08FF0880917600EB
:100A300081115BC0EDDB2B013C01DC01CB0188198E
:100A40009909AA09BB098C159D05AE05BF0570F370
:100A5000A4D022E030E040E050E00FD1DC01CB0137
:100A60000197A109B10920916C0030916D00820FAE
:100A7000931FFFDBFFDABC01990F880B990B625CB7
:100A80007140810991092CEA34EF4FEF5FEFDCD020
:100A90002DE332E040E050E0F0D069017A01BBE79D
:100AA000CB16B4EFDB06BFEFEB06FB06C4F075D048
:100AB000A70196012A57344F4F4F5F4FDED06B018D
:100AC0007C01E2E3CE0ED11CE11CF11C530142017A
:100AD000A9CF92E3C92ED12CE12CF12C9BCF82E33C
:100AE000C82ED12CE12CF12CF1CF10927600809100
:100AF0006C0090916D00BDDB64E670E080E090E0FA
:100B000041DB67CD8F929F92AF92BF92CF92DF92DF
:100B1000EF92FF92CF93DF93EC01688179818A8114
:100B20009B81611571058105910521F464E279EDE0
:100B30008BE597E02DE133EF41E050E09ED0490195
:100B40005A0127EA31E440E050E07ED06B017C019D
:100B50002CEE34EF4FEF5FEFC501B40175D0C60E38
:100B6000D71EE81EF91EF7FE06C081E0C81AD1089C
:100B7000E10880E8F80AC882D982EA82FB82C701CC
:100B8000B6019F77DF91CF91FF90EF90DF90CF90EC
:100B9000BF90AF909F908F9008958F929F92AF9249
:100BA000BF92CF92DF92EF92FF92609164007091BA
:100BB000650080916600909167006115710581055F
:100BC000910521F464E279ED8BE597E02DE133EFB7
:100BD00041E050E052D049015A0127EA31E440E0B7
:100BE00050E032D06B017C012CEE34EF4FEF5FEF21
:100BF000C501B40129D0C60ED71EE81EF91EF7FEA6
:100C000006C081E0C81AD108E10880E8F80AC0925D
:100C10006400D0926500E0926600F0926700C70120
:100C2000B6019F77FF90EF90DF90CF90BF90AF908D
:100C30009F908F90089560936400709365008093F7
:100C40006600909367000895EE27FF27AA27BB2729
:100C500008C0A20FB31FE41FF51F220F331F441F4C
:100C6000551F969587957795679598F37040A9F7E6
:100C7000009799F7BD01CF010895052E97FB16F453
:100C800000940FD057FD05D014D007FC02D046F4D5
:100C900008C050954095309521953F4F4F4F5F4F7D
:100CA000089590958095709561957F4F8F4F9F4FD8
:100CB0000895A1E21A2EAA1BBB1BFD010DC0AA1F9D
:100CC000BB1FEE1FFF1FA217B307E407F50720F0B5
:100CD000A21BB30BE40BF50B661F771F881F991F30
:100CE0001A9469F760957095809590959B01AC0179
:100CF000BD01CF0108955058BB27AA270ED0E5C0EB
:100D0000D6D030F0DBD020F031F49F3F11F41EF448
:100D1000CBC00EF4E095E7FBC1C0E92FE7D080F32C
:100D2000BA17620773078407950718F071F49EF5E8
:100D3000FFC00EF4E0950B2EBA2FA02D0B01B901C8
:100D400090010C01CA01A0011124FF27591B99F041
:100D5000593F50F4503E68F11A16F040A22F232F4D
:100D6000342F4427585FF3CF469537952795A7959D
:100D7000F0405395C9F77EF41F16BA0B620B730B44
:100D8000840BBAF09150A1F0FF0FBB1F661F771FB5
:100D9000881FC2F70EC0BA0F621F731F841F48F46A
:100DA000879577956795B795F7959E3F08F0B3CFF0
:100DB0009395880F08F09927EE0F979587950895DA
:100DC00004D06894B111B5C0089598D088F09F57A9
:100DD00090F0B92F9927B751A0F0D1F0660F771F87
:100DE000881F991F1AF0BA95C9F712C0B13081F067
:100DF0009FD0B1E008959CC0672F782F8827B85FF7
:100E000039F0B93FCCF3869577956795B395D9F7C7
:100E10003EF490958095709561957F4F8F4F9F4FD1
:100E20000895E89409C097FB3EF4909580957095DD
:100E300061957F4F8F4F9F4F9923A9F0F92F96E926
:100E4000BB279395F695879577956795B795F1119B
:100E5000F8CFFAF4BB0F11F460FF1BC06F5F7F4F38
:100E60008F4F9F4F16C0882311F096E911C077234A
:100E700021F09EE8872F762F05C0662371F096E853
:100E8000862F70E060E02AF09A95660F771F881F22
:100E9000DAF7880F9695879597F9089597F99F67E0
:100EA00080E870E060E008959FEF80EC08950024F2
:100EB0000A941616170618060906089500240A94BF
:100EC00012161306140605060895092E0394000C45
:100ED00011F4882352F0BB0F40F4BF2B11F460FFD4
:100EE00004C06F5F7F4F8F4F9F4F089557FD9058FD
:100EF000440F551F59F05F3F71F04795880F97FBDE
:100F0000991F61F09F3F79F0879508951216130697
:100F10001406551FF2CF4695F1DF08C016161706C6
:100F20001806991FF1CF86957105610508940895FB
:100F3000E894BB2766277727CB0197F908956ED0F1
:100F400008F48FEF08950AD0C0CFB1DF28F0B6DFE4
:100F500018F0952309F0A2CFA7CFEBCFC7DFA8F3F6
:100F60009923D9F35523C9F3950F50E0551FAA27AC
:100F7000EE27FF27BB2700240894679520F4E20F93
:100F8000F31FB41F0A1E220F331F441FAA1F6695AA
:100F9000A9F7779530F4F30FB41F0A1E121E08F458
:100FA0006395330F441FAA1F221F769599F78795E3
:100FB00020F4B40F0A1E121E631F440FAA1F221F23
:100FC000331F8695A9F7862F712D602D11249F5709
:100FD00050408AF0E1F088234AF0EE0FFF1FBB1F5C
:100FE000661F771F881F91505040A9F79E3F5105FB
:100FF00070F054CF9ECF5F3FECF3983EDCF38695C4
:1010000077956795B795F795E7959F5FC1F7FE2BA5
:10101000880F911D9695879597F90895990F000867
:10102000550FAA0BE0E8FEEF16161706E807F907BA
:10103000C0F012161306E407F50798F0621B730B55
:10104000840B950B39F40A2661F0232B242B252BD6
:1010500021F408950A2609F4A140A6958FEF811D79
:08106000811D0895F894FFCFF3
:081068000000803F01000000C0
:00000001FF
