:100000000C945D000C9485000C9485000C94850084
:100010000C9485000C9485000C9485000C9485004C
:100020000C9485000C9485000C9485000C9485003C
:100030000C9485000C9485000C9485000C9485002C
:100040000C943B030C9485000C94AB030C94850337
:100050000C9485000C9485000C9485000C9485000C
:100060000C9485000C9485000000000024002700FB
:100070002A0000000000250028002B0004040404CE
:100080000404040402020202020203030303030342
:10009000010204081020408001020408102001021F
:1000A00004081020000000080002010000030407FB
:1000B0000000000000000000730511241FBECFEFF8
:1000C000D8E0DEBFCDBF11E0A0E0B1E0E4E9FBE0A5
:1000D00002C005900D92AC36B107D9F724E0ACE62A
:1000E000B1E001C01D92AA31B207E1F710E0CDE501
:1000F000D0E004C02197FE010E94C205CC35D10793
:10010000C9F70E94DD030C94C8050C94000090E030
:10011000FC01EC55FF4F2491FC01E057FF4F349157
:10012000FC01E458FF4FE491EE23C9F0222339F09B
:10013000233001F1A8F4213019F1223029F1F0E047
:10014000EE0FFF1FEE58FF4FA591B4918FB7F894B3
:10015000EC91611126C030953E233C938FBF0895EA
:100160002730A9F02830C9F0243049F78091800069
:100170008F7D03C0809180008F7780938000DFCFD8
:1001800084B58F7784BDDBCF84B58F7DFBCF809125
:10019000B0008F778093B000D2CF8091B0008F7D78
:1001A000F9CF3E2BDACFCF93DF9390E0FC01E057FD
:1001B000FF4F249184589F4FFC0184918823D1F0F4
:1001C00090E0880F991FFC01E859FF4FA591B49169
:1001D000FC01EE58FF4FC591D49161110EC09FB73D
:1001E000F8948C91E22FE0958E238C932881E22362
:1001F000E8839FBFDF91CF9108958FB7F894EC917A
:10020000E22BEC938FBFF6CF8E3008F08E508770C4
:10021000806480937C0080917A00806480937A006F
:1002200080917A0086FDFCCF8091780090917900D2
:1002300008953FB7F8948091790390917A03A09143
:100240007B03B0917C0326B5A89B05C02F3F19F016
:100250000196A11DB11D3FBFBA2FA92F982F882746
:10026000BC01CD01620F711D811D911D42E0660F21
:10027000771F881F991F4A95D1F708958F929F92F3
:10028000AF92BF92CF92DF92EF92FF924B015C014F
:100290000E9419016B017C010E9419016C197D09F2
:1002A0008E099F09683E734081059105A8F321E0FE
:1002B000821A9108A108B10888EEC80E83E0D81E02
:1002C000E11CF11C81149104A104B10429F7FF90F1
:1002D000EF90DF90CF90BF90AF909F908F90089558
:1002E000FC01538D448D252F30E0842F90E0821B3C
:1002F000930B541710F0CF96089501970895FC01C1
:10030000918D828D981761F0A28DAE0FBF2FB11D18
:100310005D968C91928D9F5F9F73928F90E0089570
:100320008FEF9FEF0895FC01918D828D981731F02A
:10033000828DE80FF11D858D90E008958FEF9FEF7E
:100340000895FC01918D228D892F90E0805C9F4F54
:10035000821B91098F7399270895FC01A48DA80F22
:10036000B92FB11DA35ABF4F2C91848D90E00196F7
:100370008F739927848FA689B7892C93A089B18917
:100380008C91837080648C93938D848D981306C0B8
:100390000288F389E02D80818F7D80830895EF921C
:1003A000FF920F931F93CF93DF93EC0181E0888F2F
:1003B0009B8D8C8D98131AC0E889F989808185FFFF
:1003C00015C09FB7F894EE89FF896083E889F989A1
:1003D00080818370806480839FBF81E090E0DF91A3
:1003E000CF911F910F91FF90EF900895F62E0B8DF6
:1003F00010E00F5F1F4F0F731127E02E8C8D8E11B1
:100400000CC00FB607FCFACFE889F989808185FF17
:10041000F5CFCE010E94AD01F1CFEB8DEC0FFD2F9A
:10042000F11DE35AFF4FF0829FB7F8940B8FEA89D2
:10043000FB8980818062CFCFCF93DF93EC01888DE1
:100440008823B9F0AA89BB89E889F9898C9185FD4F
:1004500003C0808186FD0DC00FB607FCF7CF8C91DD
:1004600085FFF2CF808185FFEDCFCE010E94AD01E7
:10047000E9CFDF91CF9108958DE793E00E94A1012C
:1004800021E0892B09F420E0822F089580E090E09C
:10049000892B29F00E943C0281110C9400000895E0
:1004A000AF92BF92CF92DF92EF92FF920F931F9382
:1004B000CF93DF936C017B018B01040F151FEB01C0
:1004C0005E01AE18BF08C017D10759F06991D60177
:1004D000ED91FC910190F081E02DC6010995892BE9
:1004E00079F7C501DF91CF911F910F91FF90EF90A8
:1004F000DF90CF90BF90AF900895FC010190002055
:10050000E9F73197AF01481B590BBC018DE793E028
:100510000C945002CF93DF930E947D02EC0183E1A3
:1005200091E00E947D028C0F9D1FDF91CF91089575
:10053000EF92FF920F931F93CF93DF93E82EF62E47
:10054000C7E0D0E0042F10E0B8010C2E02C0759572
:1005500067950A94E2F761708E2D0E94870061E032
:100560008F2D0E94870060E08F2D0E9487002197C9
:1005700058F7DF91CF911F910F91FF90EF90089561
:100580008F929F92AF92BF92CF92DF92EF92FF92A3
:100590000F931F93CF93DF93CDB7DEB7A1970FB61D
:1005A000F894DEBF0FBECDBF6B017C01F7FE41C0EA
:1005B0006DE28DE793E00E94CF018C012227332763
:1005C000A9012C193D094E095F0919A2CE01819696
:1005D0007C019AE0892E912CA12CB12CCA01B90181
:1005E000A50194010E94A005605DF70162937F015F
:1005F000211531054105510589F790E080E03097DC
:1006000019F0CF010E947D02800F911FA1960FB6B5
:10061000F894DEBF0FBECDBFDF91CF911F910F9138
:10062000FF90EF90DF90CF90BF90AF909F908F9012
:100630000895AC019B0119A28E010F5D1F4F8AE046
:10064000C82ED12CE12CF12CCA01B901A7019601C9
:100650000E94A005605DF80162938F0121153105AC
:100660004105510589F790E080E0309779F2CF019C
:100670000E947D02CBCF1F920F920FB60F921124D2
:100680002F933F938F939F93AF93BF938091750365
:1006900090917603A0917703B09178033091740321
:1006A00023E0230F2D3758F50196A11DB11D20938E
:1006B00074038093750390937603A0937703B093AC
:1006C00078038091790390917A03A0917B03B09194
:1006D0007C030196A11DB11D8093790390937A0349
:1006E000A0937B03B0937C03BF91AF919F918F91B7
:1006F0003F912F910F900FBE0F901F90189526E8F5
:10070000230F0296A11DB11DD2CF1F920F920FB6DB
:100710000F9211242F933F934F935F936F937F9387
:100720008F939F93AF93BF93EF93FF938DE793E0E6
:100730000E94AD01FF91EF91BF91AF919F918F9179
:100740007F916F915F914F913F912F910F900FBECD
:100750000F901F9018951F920F920FB60F921124B1
:100760002F938F939F93EF93FF93E0918D03F091DD
:100770008E038081E0919303F091940382FD1BC06E
:100780009081809196038F5F8F73209197038217DA
:1007900041F0E0919603F0E0E358FC4F958F809391
:1007A0009603FF91EF919F918F912F910F900FBE24
:1007B0000F901F9018958081F4CF789484B5826053
:1007C00084BD84B5816084BD85B5826085BD85B5F5
:1007D000816085BD80916E00816080936E00109273
:1007E00081008091810082608093810080918100EE
:1007F000816080938100809180008160809380007F
:100800008091B10084608093B1008091B0008160DC
:100810008093B00080917A00846080937A00809108
:100820007A00826080937A0080917A008160809360
:100830007A0080917A00806880937A001092C100DB
:10084000E0918D03F0918E0382E08083E091890333
:10085000F0918A031082E0918B03F0918C038FEC6E
:10086000808310929503E0919103F091920386E0CA
:100870008083E0918F03F091900380818061808379
:10088000E0918F03F0919003808188608083E091F4
:100890008F03F0919003808180688083E0918F03C3
:1008A000F091900380818F7D808361E087E00E94DA
:1008B000D30060E08EE00E94D30061E08AE00E94F5
:1008C000D30061E08DE00E94D30061E08BE00E94E4
:1008D000D30086E191E00E947D028CE391E00E94CA
:1008E0007D0268EE73E080E090E00E943E0180E4CB
:1008F00091E00E947D0268EE73E080E090E00E944B
:100900003E0184E491E00E947D0268EE73E080E0A5
:1009100090E00E943E0180E0A82E80E0B82E8091F9
:100920000001882309F4D3C0CCE6D1E08E01C12CAC
:10093000D12C760160E08AE00E94870041E16DE001
:100940008BE00E9498024C2D6DE08BE00E94980293
:1009500061E08AE00E94870061E087E00E948700F2
:100960002FB7F8948091750390917603A091770347
:10097000B09178032FBF8093700390937103A0937D
:100980007203B093730361E070E080E090E00E9436
:100990003E012FB7F8948091750390917603A09152
:1009A0007703B09178032FBF40917003509171038A
:1009B0006091720370917303841B950BA60BB70BA8
:1009C0008897A105B10528F38EE00E940401892BC8
:1009D000D9F38EE00E94040180359105D4F32FB73E
:1009E000F8948091750390917603A0917703B0916C
:1009F00078032FBF4091700350917103609172038F
:100A000070917303841B950BA60BB70B80936C033B
:100A100090936D03A0936E03B0936F03F8018193DD
:100A200091938F0188E491E00E947D02C701B60195
:100A30000E94C00283E191E00E947D0283E591E083
:100A40000E947D0260916C0370916D0380916E0332
:100A500090916F030E94C00285E691E00E948A0295
:100A600085E191E00E948A0285E191E00E948A027C
:100A700068EC70E080E090E00E943E0160E087E07A
:100A80000E94870061E070E080E090E00E943E01FB
:100A9000FFEFCF1ADF0AEF0AFF0AC11481E0D80680
:100AA000E104F10409F046CF1092000169917991B7
:100AB000072E000C880B990B0E94C00289E691E07A
:100AC0000E947D02E3E0CC36DE0781F728CFA11437
:100AD000B10409F424CF0E943C02882309F41FCFFB
:100AE0000E9400001CCFEDE7F3E01382128288EE33
:100AF00093E0A0E0B0E084839583A683B78385E08C
:100B000091E09183808385EC90E09587848784ECE5
:100B100090E09787868780EC90E0918B808B81ECCA
:100B200090E0938B828B82EC90E0958B848B86ECAB
:100B300090E0978B868B118E128E138E148E0895F3
:100B4000A1E21A2EAA1BBB1BFD010DC0AA1FBB1FD1
:100B5000EE1FFF1FA217B307E407F50720F0A21B43
:100B6000B30BE40BF50B661F771F881F991F1A94B0
:100B700069F760957095809590959B01AC01BD01DA
:100B8000CF010895EE0FFF1F0590F491E02D099419
:040B9000F894FFCF07
:100B94000100000000CF01500270011C02A1017F7E
:100BA4000193010D0A00436F6D656E7A616E646F87
:100BB40020727574696E612064652063616C69627A
:100BC400726163696F6E20656E3A2000332E2E00C9
:100BD400322E2E00312E2E005061736F204EC2BA79
:100BE4003A2000456C207265746172646F206573ED
:0C0BF4002064652000206D73002C2000A0
:00000001FF
