:100000000C945D000C9485000C9485000C94850084
:100010000C9485000C9485000C9485000C9485004C
:100020000C9485000C9485000C9485000C9485003C
:100030000C9485000C9485000C9485000C9485002C
:100040000C9425030C9485000C9495030C946F0379
:100050000C9485000C9485000C9485000C9485000C
:100060000C9485000C9485000000000024002700FB
:100070002A0000000000250028002B0004040404CE
:100080000404040402020202020203030303030342
:10009000010204081020408001020408102001021F
:1000A00004081020000000080002010000030407FB
:1000B0000000000000000000000611241FBECFEF6A
:1000C000D8E0DEBFCDBF11E0A0E0B1E0E2E4F0E1B6
:1000D00002C005900D92A837B107D9F726E0A8E72E
:1000E000B1E001C01D92A632B207E1F710E0CDE504
:1000F000D0E004C02197FE010E941908CC35D10739
:10010000C9F70E94C7030C941F080C94000090E0EC
:10011000FC01EC55FF4F2491FC01E057FF4F349157
:10012000FC01E458FF4FE491EE23C9F0222339F09B
:10013000233001F1A8F4213019F1223029F1F0E047
:10014000EE0FFF1FEE58FF4FA591B4918FB7F894B3
:10015000EC91611126C030953E233C938FBF0895EA
:100160002730A9F02830C9F0243049F78091800069
:100170008F7D03C0809180008F7780938000DFCFD8
:1001800084B58F7784BDDBCF84B58F7DFBCF809125
:10019000B0008F778093B000D2CF8091B0008F7D78
:1001A000F9CF3E2BDACFCF93DF9390E0FC01E057FD
:1001B000FF4F249184589F4FFC0184918823D1F0F4
:1001C00090E0880F991FFC01E859FF4FA591B49169
:1001D000FC01EE58FF4FC591D49161110EC09FB73D
:1001E000F8948C91E22FE0958E238C932881E22362
:1001F000E8839FBFDF91CF9108958FB7F894EC917A
:10020000E22BEC938FBFF6CF8E3008F08E508770C4
:10021000806480937C0080917A00806480937A006F
:1002200080917A0086FDFCCF8091780090917900D2
:1002300008953FB7F8948091850590918605A09127
:100240008705B091880526B5A89B05C02F3F19F0FA
:100250000196A11DB11D3FBFBA2FA92F982F882746
:10026000BC01CD01620F711D811D911D42E0660F21
:10027000771F881F991F4A95D1F708958F929F92F3
:10028000AF92BF92CF92DF92EF92FF924B015C014F
:100290000E9419016B017C010E9419016C197D09F2
:1002A0008E099F09683E734081059105A8F321E0FE
:1002B000821A9108A108B10888EEC80E83E0D81E02
:1002C000E11CF11C81149104A104B10429F7FF90F1
:1002D000EF90DF90CF90BF90AF909F908F90089558
:1002E000FC01538D448D252F30E0842F90E0821B3C
:1002F000930B541710F0CF96089501970895FC01C1
:10030000918D828D981761F0A28DAE0FBF2FB11D18
:100310005D968C91928D9F5F9F73928F90E0089570
:100320008FEF9FEF0895FC01918D828D981731F02A
:10033000828DE80FF11D858D90E008958FEF9FEF7E
:100340000895FC01918D228D892F90E0805C9F4F54
:10035000821B91098F7399270895FC01A48DA80F22
:10036000B92FB11DA35ABF4F2C91848D90E00196F7
:100370008F739927848FA689B7892C93A089B18917
:100380008C91837080648C93938D848D981306C0B8
:100390000288F389E02D80818F7D80830895EF921C
:1003A000FF920F931F93CF93DF93EC0181E0888F2F
:1003B0009B8D8C8D98131AC0E889F989808185FFFF
:1003C00015C09FB7F894EE89FF896083E889F989A1
:1003D00080818370806480839FBF81E090E0DF91A3
:1003E000CF911F910F91FF90EF900895F62E0B8DF6
:1003F00010E00F5F1F4F0F731127E02E8C8D8E11B1
:100400000CC00FB607FCFACFE889F989808185FF17
:10041000F5CFCE010E94AD01F1CFEB8DEC0FFD2F9A
:10042000F11DE35AFF4FF0829FB7F8940B8FEA89D2
:10043000FB8980818062CFCFCF93DF93EC01888DE1
:100440008823B9F0AA89BB89E889F9898C9185FD4F
:1004500003C0808186FD0DC00FB607FCF7CF8C91DD
:1004600085FFF2CF808185FFEDCFCE010E94AD01E7
:10047000E9CFDF91CF91089589E895E00E94A1012D
:1004800021E0892B09F420E0822F089580E090E09C
:10049000892B29F00E943C0281110C9400000895E0
:1004A000AF92BF92CF92DF92EF92FF920F931F9382
:1004B000CF93DF936C017B018B01040F151FEB01C0
:1004C0005E01AE18BF08C017D10759F06991D60177
:1004D000ED91FC910190F081E02DC6010995892BE9
:1004E00079F7C501DF91CF911F910F91FF90EF90A8
:1004F000DF90CF90BF90AF900895FC010190002055
:10050000E9F73197AF01481B590BBC0189E895E029
:100510000C9450028F929F92AF92BF920F931F93B1
:10052000CF93DF93CDB7DEB7A1970FB6F894DEBFB8
:100530000FBECDBF19A2423008F44AE08E010F5D14
:100540001F4F842E912CB12CA12CA50194010E9447
:10055000F707E62FB901CA01EA30F4F4E05DD801EB
:10056000EE938D01232B242B252B79F790E080E04F
:10057000109719F0CD010E947D02A1960FB6F89454
:10058000DEBF0FBECDBFDF91CF911F910F91BF9006
:10059000AF909F908F900895E95CE1CFCF92DF926A
:1005A000EF92FF92CF93DF936B017C016DE289E8BC
:1005B00095E00E94CF01EC0166277727CB016C19EB
:1005C0007D098E099F094AE00E948A028C0F9D1FB7
:1005D000DF91CF91FF90EF90DF90CF900895CF9370
:1005E000DF930E947D02EC0183E191E00E947D0295
:1005F0008C0F9D1FDF91CF910895EF92FF920F9383
:100600001F93CF93DF93E82EF62EC7E0D0E0042FA0
:1006100010E0B8010C2E02C0759567950A94E2F7B8
:1006200061708E2D0E94870061E08F2D0E948700EF
:1006300060E08F2D0E948700219758F7DF91CF91BE
:100640001F910F91FF90EF9008951F920F920FB698
:100650000F9211242F933F938F939F93AF93BF9348
:100660008091810590918205A0918305B0918405C8
:100670003091800523E0230F2D3758F50196A11DF9
:10068000B11D209380058093810590938205A093EE
:100690008305B09384058091850590918605A0918E
:1006A0008705B09188050196A11DB11D8093850530
:1006B00090938605A0938705B0938805BF91AF916D
:1006C0009F918F913F912F910F900FBE0F901F9090
:1006D000189526E8230F0296A11DB11DD2CF1F92B7
:1006E0000F920FB60F9211242F933F934F935F9366
:1006F0006F937F938F939F93AF93BF93EF93FF93EA
:1007000089E895E00E94AD01FF91EF91BF91AF9113
:100710009F918F917F916F915F914F913F912F9119
:100720000F900FBE0F901F9018951F920F920FB64B
:100730000F9211242F938F939F93EF93FF93E09148
:100740009905F0919A058081E0919F05F091A005AF
:1007500082FD1BC090818091A2058F5F8F732091D5
:10076000A305821741F0E091A205F0E0E757FA4FA8
:10077000958F8093A205FF91EF919F918F912F917B
:100780000F900FBE0F901F9018958081F4CF789432
:1007900084B5826084BD84B5816084BD85B5826086
:1007A00085BD85B5816085BD80916E008160809337
:1007B0006E001092810080918100826080938100A0
:1007C00080918100816080938100809180008160B0
:1007D000809380008091B10084608093B10080910B
:1007E000B00081608093B00080917A008460809333
:1007F0007A0080917A00826080937A0080917A00FA
:10080000816080937A0080917A00806880937A007A
:100810001092C100E0919905F0919A0582E08083E1
:10082000E0919505F09196051082E0919705F09181
:1008300098058FEC80831092A105E0919D05F091C1
:100840009E0586E08083E0919B05F0919C05808168
:1008500080618083E0919B05F0919C058081886098
:100860008083E0919B05F0919C0580818068808366
:10087000E0919B05F0919C0580818F7D808361E0F4
:1008800087E00E94D30060E08EE00E94D30061E028
:100890008AE00E94D30061E08DE00E94D30061E015
:1008A0008BE00E94D30086E191E00E947D028CE300
:1008B00091E00E947D0268EE73E080E090E00E948B
:1008C0003E0180E491E00E947D0268EE73E080E0EA
:1008D00090E00E943E0184E491E00E947D0268EE77
:1008E00073E080E090E00E943E0100E010E0809123
:1008F0000001882309F478C1C8E7D1E05E01C12C6A
:10090000D12C760160E08AE00E94870041E16DE031
:100910008BE00E94FD024C2D6DE08BE00E94FD02F9
:1009200061E08AE00E94870061E087E00E94870022
:100930002FB7F8948091810590918205A09183054D
:10094000B09184052FBF80937C0590937D05A09383
:100950007E05B0937F0561E070E080E090E00E944A
:100960003E012FB7F8948091810590918205A09166
:100970008305B09184052FBF40917C0550917D0582
:1009800060917E0570917F05841B950BA60BB70BBC
:100990008897A105B10528F38EE00E940401892BF8
:1009A000D9F38EE00E94040180359105D4F32FB76E
:1009B000F8946091810570918205809183059091F2
:1009C00084052FBF40907C0550907D0560907E058A
:1009D00070907F05641975098609970960937805F9
:1009E0007093790580937A0590937B050E94D006D9
:1009F000F50161937193819391935F0188E491E094
:100A00000E947D024AE0C701B6010E948A0283E18A
:100A100091E00E947D0283E591E00E947D02609159
:100A200078057091790580917A0590917B0597FF03
:100A300045C00E94CE0285E691E00E94EF0285E16A
:100A400091E00E94EF0285E191E00E94EF0268ECE4
:100A500070E080E090E00E943E0160E087E00E944C
:100A6000870061E070E080E090E00E943E01FFEFCF
:100A7000CF1ADF0AEF0AFF0AC11481E0D806E104A9
:100A8000F10409F03FCF10920001C990D990E9908C
:100A9000F990A7019601C701B6010E94F2078823C9
:100AA00089F089E691E00E947D0285E791E00E944D
:100AB0007D02E5E0C837DE0741F719CF4AE00E9422
:100AC0008A02B9CF46015701E894B7F82FEF3FEFFC
:100AD0004FE75FE7C501B4010E94F20781110DC025
:100AE0002FEF3FEF4FE75FE7C501B4010E949A0681
:100AF00018161CF48DE691E0D6CF2FEF3FEF4FE7AD
:100B00005FE4C701B6010E94800718161CF481E754
:100B100091E0C9CF2FEF3FEF4FE75FECC701B60180
:100B20000E949A0687FDF3CF20E030E0A901C701BB
:100B3000B6010E949A0687FF09C06DE289E895E038
:100B40000E94CF01F7FAF094F7F8F0942AE037ED1D
:100B500043EA5BE3C701B6010E942E064B015C012C
:100B60000E949F066B017C010E94CE069B01AC0196
:100B7000C501B4010E942D064B015C014AE0C7018A
:100B8000B6010E948A026EE289E895E00E94CF01D8
:100B900020E030E040E251E4C501B4010E94850745
:100BA0004B015C010E949F066B01F12CE12C4AE095
:100BB000C701B6010E948A02C701B6010E94CE0693
:100BC0009B01AC01C501B4010E942D0620E030E07C
:100BD00040E251E40E9485070E949F0690E080E079
:100BE0004AE00E948A0261CF0115110509F47FCE07
:100BF0000E943C02882309F47ACE0E94000077CE3E
:100C0000E9E8F5E01382128288EE93E0A0E0B0E01C
:100C100084839583A683B78385E091E09183808365
:100C200085EC90E09587848784EC90E097878687B1
:100C300080EC90E0918B808B81EC90E0938B828BA9
:100C400082EC90E0958B848B86EC90E0978B868B82
:100C5000118E128E138E148E08955058BB27AA271A
:100C60000E9445060C9446070E94380738F00E94FF
:100C70003F0720F039F49F3F19F426F40C94350710
:100C80000EF4E095E7FB0C942F07E92F0E9457071D
:100C900058F3BA17620773078407950720F079F4B1
:100CA000A6F50C9479070EF4E0950B2EBA2FA02D23
:100CB0000B01B90190010C01CA01A0011124FF2709
:100CC000591B99F0593F50F4503E68F11A16F04004
:100CD000A22F232F342F4427585FF3CF4695379503
:100CE0002795A795F0405395C9F77EF41F16BA0BC8
:100CF000620B730B840BBAF09150A1F0FF0FBB1F76
:100D0000661F771F881FC2F70EC0BA0F621F731FBE
:100D1000841F48F4879577956795B795F7959E3F1B
:100D200008F0B0CF9395880F08F09927EE0F9795AC
:100D3000879508950E940B0708F481E008950E94AA
:100D40005F0788F09F5798F0B92F9927B751B0F0F7
:100D5000E1F0660F771F881F991F1AF0BA95C9F73F
:100D600014C0B13091F00E947907B1E008950C945D
:100D70007907672F782F8827B85F39F0B93FCCF310
:100D8000869577956795B395D9F73EF490958095BC
:100D9000709561957F4F8F4F9F4F0895E89409C0DC
:100DA00097FB3EF490958095709561957F4F8F4F9E
:100DB0009F4F9923A9F0F92F96E9BB279395F695B4
:100DC000879577956795B795F111F8CFFAF4BB0F32
:100DD00011F460FF1BC06F5F7F4F8F4F9F4F16C096
:100DE000882311F096E911C0772321F09EE8872F20
:100DF000762F05C0662371F096E8862F70E060E0DC
:100E00002AF09A95660F771F881FDAF7880F969554
:100E1000879597F90895990F0008550FAA0BE0E8F8
:100E2000FEEF16161706E807F907C0F012161306AC
:100E3000E407F50798F0621B730B840B950B39F4EC
:100E40000A2661F0232B242B252B21F408950A2652
:100E500009F4A140A6958FEF811D811D089597F992
:100E60009F6780E870E060E008959FEF80EC089550
:100E700000240A9416161706180609060895002479
:100E80000A9412161306140605060895092E0394F3
:100E9000000C11F4882352F0BB0F40F4BF2B11F467
:100EA00060FF04C06F5F7F4F8F4F9F4F089557FDC6
:100EB0009058440F551F59F05F3F71F04795880FC8
:100EC00097FB991F61F09F3F79F08795089512165F
:100ED00013061406551FF2CF4695F1DF08C016160B
:100EE00017061806991FF1CF8695710561050894BC
:100EF0000895E894BB2766277727CB0197F90895D3
:100F00000E940B0708F48FEF08950E9498070C9435
:100F100046070E94380738F00E943F0720F09523CB
:100F200011F00C942F070C94350711240C947A07B8
:100F30000E94570770F3959FC1F3950F50E0551F1E
:100F4000629FF001729FBB27F00DB11D639FAA271E
:100F5000F00DB11DAA1F649F6627B00DA11D661F6D
:100F6000829F2227B00DA11D621F739FB00DA11D8E
:100F7000621F839FA00D611D221F749F3327A00D48
:100F8000611D231F849F600D211D822F762F6A2FE4
:100F900011249F5750409AF0F1F088234AF0EE0F49
:100FA000FF1FBB1F661F771F881F91505040A9F776
:100FB0009E3F510580F00C942F070C947A075F3FF9
:100FC000E4F3983ED4F3869577956795B795F795B2
:100FD000E7959F5FC1F7FE2B880F911D969587952A
:100FE00097F908950E940B07880B990B0895A1E2C9
:100FF0001A2EAA1BBB1BFD010DC0AA1FBB1FEE1F93
:10100000FF1FA217B307E407F50720F0A21BB30BDD
:10101000E40BF50B661F771F881F991F1A9469F759
:1010200060957095809590959B01AC01BD01CF01B5
:101030000895EE0FFF1F0590F491E02D0994F894A8
:02104000FFCFE0
:101042000100000000CF01500270011C02A1017FCB
:101052000193010D0A00436F6D656E7A616E646FD4
:1010620020727574696E612064652063616C6962C7
:10107200726163696F6E20656E3A2000332E2E0016
:10108200322E2E00312E2E005061736F204EC2BAC6
:101092003A2000456C207265746172646F2065733A
:1010A2002064652000206D73006E616E00696E66BB
:0810B200006F7666002C20009F
:00000001FF
